:020000021000EC
:1000000030A00120C59B0100214703007D9B01001A
:100010007D9B01007D9B01007D9B01007D9B01007C
:1000200000000000000000000000000055920100E8
:100030007D9B010000000000F19101007D9B01000B
:10004000ED920100ED920100ED920100ED920100B0
:10005000ED920100ED920100ED920100ED920100A0
:10006000ED920100ED920100ED920100ED92010090
:10007000ED920100ED920100ED920100ED92010080
:10008000ED920100ED920100ED920100ED92010070
:10009000ED920100ED920100ED920100ED92010060
:1000A000ED920100ED920100ED920100ED92010050
:1000B000ED920100ED920100ED920100ED92010040
:1000C000ED920100ED920100ED920100ED92010030
:1000D000ED920100ED920100ED920100ED92010020
:1000E000ED920100ED920100ED920100ED92010010
:1000F000ED920100ED920100ED920100ED92010000
:10010000ED920100ED920100ED920100ED920100EF
:10011000ED920100ED920100ED920100ED920100DF
:10012000ED920100ED920100ED920100ED920100CF
:10013000ED920100ED920100ED920100ED920100BF
:04014000ED9201003B
:04014400FFFFFFFFBB
:1001480081F0004102E000BF83F0004330B54FEA80
:1001580041044FEA430594EA050F08BF90EA020FED
:100168001FBF54EA000C55EA020C7FEA645C7FEA80
:10017800655C00F0E2804FEA5454D4EB5555B8BFA3
:100188006D420CDD2C4480EA020281EA030382EA14
:10019800000083EA010180EA020281EA0303362DA6
:1001A80088BF30BD11F0004F4FEA01314FF4801C79
:1001B8004CEA113102D0404261EB410113F0004F8B
:1001C8004FEA03334CEA133302D0524263EB430342
:1001D80094EA050F00F0A780A4F10104D5F1200EE0
:1001E8000DDB02FA0EFC22FA05F2801841F100013B
:1001F80003FA0EF2801843FA05F359410EE0A5F10F
:1002080020050EF1200E012A03FA0EFC28BF4CF03F
:10021800020C43FA05F3C01851EBE37101F00045F5
:1002280007D54FF0000EDCF1000C7EEB00006EEB02
:100238000101B1F5801F1BD3B1F5001F0CD349088C
:100248005FEA30004FEA3C0C04F101044FEA4452E3
:1002580012F5800F80F09A80BCF1004F08BF5FEA6A
:10026800500C50F1000041EB045141EA050130BD4A
:100278005FEA4C0C404141EB0101013C28BFB1F55C
:10028800801FE9D291F0000F04BF01460020B1FAA7
:1002980081F308BF2033A3F10B03B3F120020CDA7A
:1002A8000C3208DD02F1140CC2F10C0201FA0CF058
:1002B80021FA02F10CE002F11402D8BFC2F1200CBD
:1002C80001FA02F120FA0CFCDCBF41EA0C01904073
:1002D800E41AA2BF01EB0451294330BD6FEA0404BC
:1002E8001F3C1CDA0C340EDC04F11404C4F12002A7
:1002F80020FA04F001FA02F340EA030021FA04F3B9
:1003080045EA030130BDC4F10C04C4F1200220FA0F
:1003180002F001FA04F340EA0300294630BD21FA4D
:1003280004F0294630BD94F0000F83F4801306BF13
:1003380081F480110134013D4EE77FEA645C18BF07
:100348007FEA655C29D094EA050F08BF90EA020F9E
:1003580005D054EA000C04BF1946104630BD91EA96
:10036800030F1EBF0021002030BD5FEA545C05D199
:100378004000494128BF41F0004130BD14F58004D8
:100388003CBF01F5801130BD01F0004545F0FE414C
:1003980041F470014FF0000030BD7FEA645C1ABF81
:1003A800194610467FEA655C1CBF0B46024650EAB8
:1003B800013406BF52EA033591EA030F41F40021E4
:1003C80030BD00BF90F0000F04BF0021704730B56A
:1003D8004FF4806404F132044FF000054FF000013F
:1003E80050E700BF90F0000F04BF0021704730B500
:1003F8004FF4806404F1320410F0004548BF4042D5
:100408004FF000013EE700BF42004FEAE2014FEA29
:1004180031014FEA02701FBF12F07F4393F07F4F04
:1004280081F06051704732F07F4208BF704793F007
:100438007F4F04BF41F40021704730B54FF460741A
:1004480001F0004521F000411CE700BF50EA01021D
:1004580008BF704730B54FF000050AE050EA0102C6
:1004680008BF704730B511F0004502D5404261EB36
:1004780041014FF4806404F132045FEA915C3FF477
:10048800D8AE4FF003025FEADC0C18BF03325FEA14
:10049800DC0C18BF033202EBDC02C2F1200300FAC5
:1004A80003FC20FA02F001FA03FE40EA0E0021FAEA
:1004B80002F11444BDE600BF70B54FF0FF0C4CF4D8
:1004C800E06C1CEA11541DBF1CEA135594EA0C0F8A
:1004D80095EA0C0F00F0DEF82C4481EA030621EAC5
:1004E8004C5123EA4C5350EA013518BF52EA033500
:1004F80041F4801143F4801338D0A0FB02CE4FF0B2
:100508000005E1FB02E506F00042E0FB03E54FF0E1
:100518000006E1FB03569CF0000F18BF4EF0010ED9
:10052800A4F1FF04B6F5007F64F5407404D25FEAD5
:100538004E0E6D4146EB060642EAC62141EA555188
:100548004FEAC52040EA5E504FEACE2EB4F1FD0CCA
:1005580088BFBCF5E06F1ED8BEF1004F08BF5FEA48
:10056800500E50F1000041EB045170BD06F00046FA
:1005780046EA010140EA020081EA0301B4EB5C04A7
:10058800C2BFD4EB0C0541EA045170BD41F480119F
:100598004FF0000E013C00F3AB8014F1360FDEBFC4
:1005A800002001F0004170BDC4F10004203C35DAA0
:1005B8000C341BDC04F11404C4F1200500FA05F323
:1005C80020FA04F001FA05F240EA020001F00042C4
:1005D80021F0004110EBD37021FA04F642EB06013A
:1005E8005EEA430E08BF20EAD37070BDC4F10C0464
:1005F800C4F1200500FA04F320FA05F001FA04F228
:1006080040EA020001F0004110EBD37041F1000113
:100618005EEA430E08BF20EAD37070BDC4F120051E
:1006280000FA05F24EEA020E20FA04F301FA05F286
:1006380043EA020321FA04F001F0004121FA04F22E
:1006480020EA020000EBD3705EEA430E08BF20EAFE
:10065800D37070BD94F0000F0FD101F00046400038
:1006680041EB010111F4801F08BF013CF7D041EABA
:10067800060195F0000F18BF704703F000465200BE
:1006880043EB030313F4801F08BF013DF7D043EA8F
:100698000603704794EA0C0F0CEA135518BF95EA45
:1006A8000C0F0CD050EA410618BF52EA4306D1D1CC
:1006B80081EA030101F000414FF0000070BD50EAEB
:1006C800410606BF1046194652EA430619D094EA75
:1006D8000C0F02D150EA013613D195EA0C0F05D15F
:1006E80052EA03361CBF104619460AD181EA0301B3
:1006F80001F0004141F0FE4141F470014FF000006B
:1007080070BD41F0FE4141F4780170BD70B54FF005
:10071800FF0C4CF4E06C1CEA11541DBF1CEA135585
:1007280094EA0C0F95EA0C0F00F0A7F8A4EB050467
:1007380081EA030E52EA03354FEA013100F088805E
:100748004FEA03334FF0805545EA131343EA126327
:100758004FEA022245EA111545EA10654FEA0026DC
:100768000EF000419D4208BF964244F1FD0404F595
:10077800407402D25B084FEA3202B61A65EB0305F1
:100788005B084FEA32024FF480104FF4002CB6EBAE
:10079800020E75EB030E22BFB61A754640EA0C002E
:1007A8005B084FEA3202B6EB020E75EB030E22BF6E
:1007B800B61A754640EA5C005B084FEA3202B6EBAF
:1007C800020E75EB030E22BFB61A754640EA9C006E
:1007D8005B084FEA3202B6EB020E75EB030E22BF3E
:1007E800B61A754640EADC0055EA060E18D04FEAFC
:1007F800051545EA16754FEA06164FEAC30343EA9C
:1008080052734FEAC2025FEA1C1CC0D111F4801F68
:100818000BD141EA00014FF000004FF0004CB6E761
:1008280011F4801F04BF01430020B4F1FD0C88BF00
:10083800BCF5E06F3FF6AFAEB5EB030C04BFB6EB0B
:10084800020C5FEA500C50F1000041EB045170BDFE
:100858000EF0004E4EEA113114EB5C04C2BFD4EB2B
:100868000C0541EA045170BD41F480114FF0000EAF
:10087800013C90E645EA060E8DE60CEA135594EA2B
:100888000C0F08BF95EA0C0F3FF43BAF94EA0C0F2E
:100898000AD150EA01347FF434AF95EA0C0F7FF4A3
:1008A80025AF104619462CE795EA0C0F06D152EAF7
:1008B80003353FF4FDAE1046194622E750EA4106DB
:1008C80018BF52EA43067FF4C5AE50EA41047FF4EC
:1008D8000DAF52EA43057FF4EBAE12E74FF0FF3C51
:1008E80006E000BF4FF0010C02E000BF4FF0010C22
:1008F8004DF804CD4FEA410C7FEA6C5C4FEA430C9B
:1009080018BF7FEA6C5C1BD001B050EA410C0CBFE9
:1009180052EA430C91EA030F02BF90EA020F00204B
:10092800704710F1000F91EA030F58BF994208BFB2
:1009380090422CBFD8176FEAE37040F0010070476F
:100948004FEA410C7FEA6C5C02D150EA013C07D1C6
:100958004FEA430C7FEA6C5CD6D152EA033CD3D011
:100968005DF8040B704700BF8446104662468C460B
:100978001946634600E000BF01B5FFF7B7FF00283E
:1009880048BF10F1000F01BD4DF808EDFFF7F4FF67
:100998000CBF012000205DF808FB00BF4DF808EDF2
:1009A800FFF7EAFF34BF012000205DF808FB00BF15
:1009B8004DF808EDFFF7E0FF94BF012000205DF837
:1009C80008FB00BF4DF808EDFFF7CEFF94BF0120EC
:1009D80000205DF808FB00BF4DF808EDFFF7C4FFE5
:1009E80034BF012000205DF808FB00BF80F0004004
:1009F80002E000BF81F0004142001FBF5FEA4103EF
:100A080092EA030F7FEA226C7FEA236C6AD04FEAEE
:100A18001262D2EB1363C1BFD21841404840414033
:100A2800B8BF5B42192B88BF704710F0004F40F4E5
:100A3800000020F07F4018BF404211F0004F41F401
:100A4800000121F07F4118BF494292EA030F3FD0CD
:100A5800A2F1010241FA03FC10EB0C00C3F12003E0
:100A680001FA03F100F0004302D5494260EB40006F
:100A7800B0F5000F13D3B0F1807F06D340084FEADA
:100A8800310102F10102FE2A51D2B1F1004F40EBCF
:100A9800C25008BF20F0010040EA03007047490037
:100AA80040EB0000013A28BFB0F5000FEDD2B0FAD4
:100AB80080FCACF1080CB2EB0C0200FA0CF0AABFF7
:100AC80000EBC25052421843BCBFD0401843704795
:100AD80092F0000F81F4000106BF80F4000001329B
:100AE800013BB5E74FEA41037FEA226C18BF7FEA72
:100AF800236C21D092EA030F04D092F0000F08BFB4
:100B08000846704790EA010F1CBF0020704712F09A
:100B18007F4F04D1400028BF40F00040704712F1D9
:100B280000723CBF00F50000704700F0004343F03E
:100B3800FE4040F4000070477FEA226216BF084674
:100B48007FEA23630146420206BF5FEA412390EA37
:100B5800010F40F4800070474FF0000304E000BF2D
:100B680010F0004348BF40425FEA000C08BF7047DE
:100B780043F0964301464FF000001CE050EA0102A2
:100B880008BF70474FF000030AE000BF50EA0102B7
:100B980008BF704711F0004302D5404261EB4101A4
:100BA8005FEA010C02BF84460146002043F0B643C9
:100BB80008BFA3F18053A3F50003BCFA8CF2083AEE
:100BC800A3EBC25310DB01FA02FC634400FA02FCF7
:100BD800C2F12002BCF1004F20FA02F243EB0200FE
:100BE80008BF20F00100704702F1200201FA02FC60
:100BF800C2F1200250EA4C0021FA02F243EB020053
:100C080008BF20EADC7070474FF0FF0C1CEAD05296
:100C18001EBF1CEAD15392EA0C0F93EA0C0F6FD057
:100C28001A4480EA010C400218BF5FEA41211ED035
:100C38004FF0006343EA501043EA5111A0FB013121
:100C48000CF00040B1F5000F3EBF490041EAD371F6
:100C58005B0040EA010062F17F02FD2A1DD8B3F172
:100C6800004F40EBC25008BF20F00100704790F0E1
:100C7800000F0CF0004C08BF49024CEA502040EA33
:100C880051207F3AC2BFD2F1FF0340EAC2507047F9
:100C980040F400004FF00003013A5DDC12F1190F37
:100CA800DCBF00F000407047C2F10002410021FAA9
:100CB80002F1C2F1200200FA02FC5FEA310040F1C1
:100CC800000053EA4C0308BF20EADC70704792F03A
:100CD800000F00F0004C02BF400010F4000F013A72
:100CE800F9D040EA0C0093F0000F01F0004C02BF6D
:100CF800490011F4000F013BF9D041EA0C018FE7DC
:100D08000CEAD15392EA0C0F18BF93EA0C0F0AD0E1
:100D180030F0004C18BF31F0004CD8D180EA010007
:100D280000F00040704790F0000F17BF90F0004FA0
:100D3800084691F0000F91F0004F14D092EA0C0F82
:100D480001D142020FD193EA0C0F03D14B0218BF15
:100D5800084608D180EA010000F0004040F0FE405B
:100D680040F40000704740F0FE4040F440007047F7
:100D78004FF0FF0C1CEAD0521EBF1CEAD15392EA76
:100D88000C0F93EA0C0F69D0A2EB030280EA010C66
:100D980049024FEA402037D04FF0805343EA1111FF
:100DA80043EA10130CF000408B4238BF5B0042F15D
:100DB8007D024FF4000C8B4224BF5B1A40EA0C0002
:100DC800B3EB510F24BFA3EB510340EA5C00B3EB34
:100DD800910F24BFA3EB910340EA9C00B3EBD10F22
:100DE80024BFA3EBD10340EADC001B0118BF5FEA74
:100DF8001C1CE0D1FD2A3FF650AF8B4240EBC2509D
:100E080008BF20F0010070470CF0004C4CEA50205D
:100E18007F32C2BFD2F1FF0340EAC250704740F4AC
:100E280000004FF00003013A37E792F0000F00F09E
:100E3800004C02BF400010F4000F013AF9D040EA1C
:100E48000C0093F0000F01F0004C02BF490011F4B0
:100E5800000F013BF9D041EA0C0195E70CEAD153A8
:100E680092EA0C0F08D142027FF47DAF93EA0C0F8F
:100E78007FF470AF084676E793EA0C0F04D14B0273
:100E88003FF44CAF08466EE730F0004C18BF31F025
:100E9800004CCAD130F000427FF45CAF31F000431F
:100EA8007FF43CAF5FE700BF4FEA4002B2F1FE4F6C
:100EB8000FD34FF09E03B3EB12620DD94FEA002314
:100EC80043F0004310F0004F23FA02F018BF4042ED
:100ED80070474FF00000704712F1610F01D14202D4
:100EE80005D110F0004008BF6FF0004070474FF088
:100EF800000070477BB972B90029BEBF00204FF0CF
:100F0800004106E008BF00281CBF6FF000414FF009
:100F1800FF3000F057B8ADF1080C6DE904CE002998
:100F280009DB002B1ADB00F08DF8DDF804E0DDE9C1
:100F3800022304B07047404261EB4101002B1BDBE8
:100F480000F080F8DDF804E0DDE9022304B0404257
:100F580061EB4101524263EB43037047524263EB3A
:100F6800430300F06FF8DDF804E0DDE9022304B084
:100F7800404261EB41017047524263EB430300F08A
:100F880061F8DDF804E0DDE9022304B0524263EBC6
:100F98004303704753B94AB9002908BF00281CBF4A
:100FA8004FF0FF314FF0FF3000F00CB8ADF1080CF6
:100FB8006DE904CE00F046F8DDF804E0DDE902232F
:100FC80004B07047704700BF4FEA410C7FEA6C5C81
:100FD80002D150EA013C0AD14FEA430C7FEA6C5C2B
:100FE80002D152EA033C02D14FF0000070474FF0A3
:100FF800010070474FEA410212F5001215D211D5CF
:101008006FF47873B3EB625212D94FEAC12343F0FD
:10101800004343EA505311F0004F23FA02F018BF7F
:10102800404270474FF00000704750EA013005D148
:1010380011F0004008BF6FF0004070474FF000000B
:10104800704700BF2DE9F04786468C460846089E43
:10105800154674461946002B40F0C1808542B2FA05
:1010680082F245D94AB1C2F1200300FA02FC954048
:1010780094402EFA03F343EA0C0C4FEA154EA8B23B
:10108800230CBCFBFEF80EFB18CC08FB00F943EA66
:101098000C43994528D9EB1808F1FF3704D2994534
:1010A80002D9A8F102072B44A3EB0903A4B2B3FBAE
:1010B800FEFC0EFB1C330CFB00F044EA0344A04288
:1010C80014D92C190CF1FF3304D2A04202D9ACF187
:1010D80002032C44241A43EA07401EB1D4400023DB
:1010E80034607360BDE8F0874746DDE76346F1E7A3
:1010F80092BB431B01214FEA154EAFB2200CB3FB44
:10110800FEFC0EFB1C330CFB07F840EA0343984532
:1011180061D9EB180CF1FF3004D2984502D9ACF133
:1011280002002B44A3EB0803A4B2B3FBFEFC0EFBA6
:101138001C330CFB07F744EA0344A7424DD92C198A
:101148000CF1FF3304D2A74202D9ACF102032C44BC
:10115800E41B43EA0040C0E7C2F1200395409440F5
:1011680020FA03F12EFA03F34FEA154E9040AFB27E
:101178000343B1FBFEFC0EFB1C10190C0CFB07F81B
:1011880041EA0041884522D969180CF1FF3004D2A0
:10119800884502D9ACF102002944A1EB08019BB2B1
:1011A800B1FBFEFC0EFB1C110CFB07F743EA0143E5
:1011B8009F420ED9EB180CF1FF3104D29F4202D99D
:1011C800ACF102012B44DB1B41EA004193E7604686
:1011D800E3E76146F7E76046A4E76346B8E783427A
:1011E80006D916B9002108467CE7C6E900E0F9E708
:1011F800B3FA83F78FB9834201D3724508D8BEEB9F
:10120800020460EB030301209C461EB9002169E734
:101218003846FAE7C6E9004CF8E7C7F1200CBB40AE
:101228000EFA07F522FA0CF42EFA0CF1BA401C4318
:1012380020FA0CF3B8404FEA144901431FFA84FE20
:10124800B3FBF9F809FB18300B0C08FB0EFA43EA5C
:1012580000439A4540D9E31808F1FF3004D29A4573
:1012680002D9A8F102002344A3EB0A0389B2B3FB15
:10127800F9F809FB183308FB0EFE41EA03418E45D5
:101288002CD9611808F1FF3304D28E4502D9A8F190
:101298000203214443EA0040A1EB0E01A0FB02989F
:1012A8004145CE46434602D306D14D4504D20138C6
:1012B800B9EB020E68EB0403002EA7D0B5EB0E02C3
:1012C80061EB030101FA0CFC22FA07F3F9404CEA3E
:1012D8000303C6E9003199E74046C5E74346D9E725
:1012E80010F8012B11F8013B012A28BF9A42F7D0C8
:1012F800D01A7047034613F8012B002AFBD1181A9D
:10130800013870470000000000B583B0684602F05D
:1013180077FB28B104A1D1E9000103B05DF804FB13
:101328000098FFF771F8F8E766666666661271C09E
:101338002DE9F04786B08046894617461E469DF837
:1013480038A03A223449384624F092FB04460F224A
:101358003249304624F08CFB0023049305939C42C9
:1013680020DB0546002824DB04AB82B2A1B2484644
:1013780024F066FB034618B310F1160F02D1BAF138
:10138800000F0CD00193254B53F825300093224BC6
:1013980053F82430224A0121404622F068FA06B068
:1013A800BDE8F0873B461F4A0121404622F05FFA1C
:1013B800F5E733461C4A0121404622F058FAEEE789
:1013C800D9F800900498FFF70DF806460F460598DF
:1013D800FFF708F80EA3D3E90023FFF797F90246B1
:1013E8000B4630463946FEF7B1FECDE902010B4BFC
:1013F80053F825300193084B53F8243000934B469B
:101408000A4A0221404622F032FAC8E7AFF30080C8
:101418000000000080842E4178C700203CC70020CF
:10142800F4650400C4650400DC6504002466040057
:101438002DE9F04F144697B01D46476A8346239E10
:10144800CDE904457FB910201CF0E4FE0246CBF834
:10145800240020B9A24BEA21A2481CF0ABFEC0E947
:1014680001770760C760DBF82430196859B15A68FA
:101478000123584693404A608B601EF013F8DBF84E
:10148800243000221A602B1EB7BF23F0004300232C
:1014980001220593A8BF3360059F934BB8BF326004
:1014A800BB4319D142F20F73229A1360C7F3130397
:1014B800234300F0E085249B53B98C4B21E08C4BEF
:1014C80008930833249A1360089817B0BDE8F08F82
:1014D800864B08930333F5E7DDE90423CDE90C23B4
:1014E800DDE90C0100220023FFF74EFA804650B1D7
:1014F8000123229A1360249B13B17E4B249A136014
:101508007D4B0893E0E714ABC7F30A56584601939E
:1015180015AB0093DDE90C231EF04AFA0390002E68
:1015280078D00D9BA6F2FF36CDF84C80C3F3130399
:1015380043F07F53DDE90C0143F4401319460022C0
:101548006E4BFEF701FE60A3D3E90023FEF7B4FF5C
:101558005FA3D3E90023FEF7F9FD04460D463046A4
:10156800FEF740FF5CA3D3E90023FEF7A5FF024680
:101578000B4620462946FEF7E9FD04460D46FFF7CF
:1015880039FD00220746002320462946FFF706FAC0
:1015980040B13846FEF726FF22462B46FFF7F4F9FE
:1015A80000B9013F162F54D8554B03EBC703DDE9AB
:1015B8000C01D3E90023FFF7F1F900284BD0013FD4
:1015C80000231293149B9B1B5A1E4CBFC3F10103AB
:1015D80000230A9245BF0693002306930A93002F1F
:1015E8003BDB0A9B0F973B440A9300230B93209BFA
:1015F800092B00F28980052BC5BF043B0024012478
:101608002093209B023B032B00F28980DFE803F044
:101618002D3A3859DDE914631E4406F23243202B73
:10162800C9BFC3F14003C3F120039F4006F2124330
:10163800D8BF04FA03F006F1FF36C4BF24FA03F357
:1016480047EA0300FEF7BEFE0122A1F1F8731392E8
:1016580074E70123B5E71290B4E7069BDB1B0693FA
:101668007B420B9300230F93C1E700230E93219B2A
:10167800002B57DC012399461A46099321920CE066
:101688000123F3E700230E93219BFB1803F10109C3
:1016980009934B46012BB8BF0123DBF82400002136
:1016A800042202F114059D4240D9416058461DF0BC
:1016B800B9FE089000283CD1124B02464FF4D57170
:1016C800CAE60123DFE700BF61436F63A787D23F04
:1016D800B3C8608B288AC63FFB799F501344D33F19
:1016E800FACF040092D004000000F07F8ED00400EE
:1016F80085D00400D7CF0400D6CF04000000F83FFF
:10170800F02A040006D10400012400230E9420933B
:101718004FF0FF330022994609931223AEE70123C5
:101728000E93F5E7219B99460993B6E701315200DC
:10173800B7E7DBF82430B9F10E0F089A1A606FD8B2
:10174800002C6DD0002F36DD07F00F02A04BF805F6
:1017580003EBC203D3E90034CDE910344FEA271470
:1017680017D59C4B04F00F044FF00308D3E9082366
:10177800DDE90C01FEF7CAFFCDE90401954D5CB91E
:10178800DDE91023DDE90401FEF7C0FFCDE904011E
:101798002BE04FF00208F1E7E10709D508F101084D
:1017A800DDE91001D5E90023FEF786FECDE9100139
:1017B80064100835E3E700F007817C42844B854DCF
:1017C8004FF0020804F00F02241103EBC203DDE915
:1017D8000C01D3E90023FEF76FFE0023CDE90401D5
:1017E800002C40F0E580002BD0D1129BDDE90445A8
:1017F800002B00F04C810022774B20462946FFF74A
:10180800CDF8002800F04381B9F1000F00F03F81C6
:10181800099B002B00F3E480DDE90C34CDE90434A6
:10182800159B002B02DB0E2F40F342820E9A002AF2
:1018380040F067820B9C0025DDF81880B8F1000F96
:101848000DD00A9B002B0ADD4345069AA8BF4346E4
:10185800D21AA8EB030806920A9AD31A0A930B9B8A
:101868000BB30E9B002B00F0A682002C00F0A18287
:101878002946224658461DF03FFF039A0146054671
:1018880058461DF08FFE0399064658461DF00AFE7D
:101898000B9B1B1B0B9300F091820B9A3146584609
:1018A8001DF02AFF0390012158461DF065FE0F9B8D
:1018B8000446002B00F084821A46014658461DF063
:1018C8001BFF209B0446012B03DC049B002B00F02C
:1018D8007C820026236904EB8303186930F057FCE7
:1018E800C0F120000F960A9B184410F01F0000F06A
:1018F8009182C0F12003042B40F38182C0F11C00C7
:10190800069B0344804406930A9B03440A93069B60
:10191800002B05DD1A46039958461DF047FF039032
:101928000A9B002B05DD21461A4658461DF03EFF4E
:101938000446129B002B00F076822146039830F073
:1019480075FC002880F26F8200230A22039958460A
:101958001DF0CAFD0E9B7E1E0390002B00F05C82DA
:10196800002329460A2258461DF0BEFD099B05465C
:10197800002B03DC209B022B00F35E82B8F1000FE2
:1019880005DD2946424658461DF010FF05460F9BC7
:10199800002B00F0D082696858461DF043FD0746C9
:1019A800002840F07F820D4B024640F2EA2153E5C1
:1019B800E20706D508F10108D5E90023FEF77CFD0A
:1019C8000123641008350BE74FF002080DE700BF4C
:1019D800F02A0400C82A04000000F03F06D10400E1
:1019E80020460022AC4B2946FEF766FD7E1E08F114
:1019F8000108099CCDE904014046FEF7F3FCDDE946
:101A08000423FEF759FDA54B0022FEF79FFBA1F129
:101A18005073CDE910011193002C3BD10022A04B4B
:101A2800DDE90401FEF790FB02460B46CDE90423ED
:101A3800DDE91023FEF7D0FF002840F05781DDE9EB
:101A4800102101F10043DDE90401FEF7A7FF00289A
:101A58003FF4E2AE00242546219BDDF820A0DE43BA
:101A68004FF00008214658461DF01CFD002D00F0DF
:101A7800A980B8F1000F05D0A84503D041465846C3
:101A88001DF010FD294658461DF00CFD9AE03E4613
:101A98004C46B1E7834B03EBC40353E90201089BAF
:101AA8001C440E9B002B4AD002460B4600207E4960
:101AB800FEF72CFEDDE91023FEF746FBDDF820A03B
:101AC800CDE91001DDE90401FFF794FA0546FEF7B8
:101AD80089FC024630350B46DDE90401FEF734FB8C
:101AE8000AF8015B02460B46CDE90401DDE9100165
:101AF800FEF772FF002865D100206C49DDE9042358
:101B0800FEF722FB02460B46DDE91001FEF764FFF3
:101B1800002840F00D81A24500F0EA8000225E4BCB
:101B2800DDE91001FEF7C8FC00225B4BCDE910018E
:101B3800DDE90401FEF7C0FCCDE90401C2E7DDE9F7
:101B48001023FEF7B9FCA046DDF820A0CDE910016E
:101B5800DDE90401FFF74EFA0546FEF743FC0246AD
:101B680030350B46DDE90401FEF7EEFA0AF8015BB1
:101B780002460B46A245CDE904234FF0000223D1CB
:101B8800494BDDE91001FEF7E1FA02460B46DDE9B3
:101B98000401FEF721FF002840F0CA8000204249D6
:101BA800DDE91023FEF7D0FA02460B46DDE9040111
:101BB800FEF7F4FE70B1C24608F1FF381AF8013C8E
:101BC800302BF8D0374655E0334BFEF775FCCDE99E
:101BD8000401BDE7DDE90C34CDE90434159B002B85
:101BE800FFF628AE0E2F3FF725AE2E4B03EBC703AB
:101BF800D3E90034CDE90634219B002B02DAB9F190
:101C0800000F64D0DDF820A0DDE90445DDE90623F6
:101C180020462946FEF77AFDFFF7ECF90646FEF75F
:101C2800E1FBDDE90623FEF747FC0246204606F104
:101C380030040B462946FEF787FA0AF8014B089C40
:101C480002460B46AAEB0404A14540F08280FEF749
:101C58007DFA04460D46DDE90623FEF7BDFE0028A1
:101C680065D120462946DDE90623FEF78DFE08B139
:101C7800F3075CD4039958461DF014FC0023013780
:101C88008AF80030229B1F60249B002B3FF41CAC79
:101C9800C3F800A018E400BF0000244000001C4066
:101CA80000001440F02A04000000E03F0000F03F6C
:101CB800A24B03EBC703D3E90034CDE90634219BDB
:101CC800002B9FDAB9F1000F9CDC7FF4C3AE002231
:101CD8009B4BDDE90601FEF7EFFBDDE90423FEF788
:101CE80071FE044600287FF4B5AE3E462546B4E0B2
:101CF800DDE90C34CDE90434159B002B01DB0E2FF4
:101D0800D6DD209A012A36DC139A82B303F23343D4
:101D18000B9CDDF81880069A012158461A44069251
:101D28000A9A1A440A921DF027FC054686E53E46A3
:101D380053469A4613F8012D392A06D1089A9A4231
:101D4800F7D13022089901360A701A7801321A70D0
:101D580038E700227B4BFEF7AFFB00220023044646
:101D68000D46FEF711FE00283FF450AF82E7149BA2
:101D7800C3F13603CCE709F1FF340B9BA34208DB20
:101D8800B9F1000FA3EB04040EDBDDF818804B4615
:101D9800C1E70B9B0F9AE31A0B94DDF81880002417
:101DA8001A444B460F92B6E7069BA3EB090800239B
:101DB800B1E7039E71E50B9A039970E5039672E506
:101DC800209B012B17DC049BABB9059BC3F31303C2
:101DD8009BB9059B23F00046360D360536B1069BA8
:101DE8000126013306930A9B01330A930F9B002BAC
:101DF8007FF470AD0F96012075E50026F6E73FF4F5
:101E080086AD1C33069A1A44984406920A9A1A44D4
:101E18000A927CE50346F4E7099B002B2BDC209B08
:101E2800022B09DC27E0B9F1000F1DDC209B022BF7
:101E38001ADD3E46CDF82490099B002B7FF40CAEAA
:101E48002146052258461DF04FFB014604460398DB
:101E580030F0ECF900287FF7FFADDDF820A0312342
:101E680001360AF8013BFBE50E9B3E46CDF824906F
:101E7800002B7FF483AD089F2146039830F013F8B8
:101E8800089B00F13009099A07F8019BFB1A9A424E
:101E980040F3CB8000230A22039958461DF024FB07
:101EA8000390E9E72A6905F10C010C30023292002F
:101EB8002FF0E9FD0122394658461DF077FC089BB2
:101EC800A846054603F1010ADDE9082313440A93ED
:101ED800049B03F001030B930AF1FF332146039897
:101EE80006932FF0E0FF4146099000F1300903986E
:101EF80030F09CF92A462146074658461DF0C2FC98
:101F0800C268014602B358461DF0CCFA002F3ADAEF
:101F18000122039958461DF049FC2146039030F0F0
:101F280085F9002803DC29D119F0010F26D0B9F171
:101F3800390F1DD132E02846C1E700BFF02A04005E
:101F480000001440000024400E90039830F06EF911
:101F58000E990C9058461DF0A5FA0C9A5ABB209B76
:101F680053B90B9B43B9B9F1390F17D0002F05DDD1
:101F7800099B03F1310901E0002F2ADADDF818A0E6
:101F88000AF8019B6EE5209B3B4304D1049B03F0B8
:101F98000103002BBCD0B9F1390F36D1069F392384
:101FA80007F8013BBA46013F1AF8013C392B5AD0D1
:101FB80001333B7056E5002F06DB209B3B4306D1DF
:101FC800049B03F0010313B9002AA1DCD6E7002A19
:101FD800E1DC0A9B57460AF8019C53452ED00023A2
:101FE8000A22039958461DF07FFAA84503904FF03E
:101FF80000034FF00A02414658460BD11DF074FA0F
:10200800804605460AF1010A66E7DDF818A009F1DD
:102018000109B5E71DF068FA2946804600230A221F
:1020280058461DF061FA0546ECE7099B4FF0000899
:10203800002BCCBF1F460127089B1F440122039990
:1020480058461DF0B3FB2146039030F0EFF8002806
:10205800A8DC02D119F0010FA4D1BA4617F8013D46
:10206800302BFAD0FEE4089BBB429BD13123089A5F
:1020780001361370F6E4249B002B7FF420AA014B51
:10208800FFF73FBA85D0040010B584B000F040FDDA
:1020980001F010FE00F028FC41F288301DF00AFF24
:1020A8000446314B1B6803F00703022B42D82F4B21
:1020B8009C42B8BF1C4604F5FA60C117C90341EA3F
:1020C8005041C00340F2E733C0184FF47A724FF022
:1020D800000341F10001FEF75DFF02460B460224B2
:1020E8000094002000F03EFC214B1C6001210020E0
:1020F8001DF045FF4FF4FA701DF016FE002108464A
:102108001DF03DFF4FF4FA701DF00EFE0121002076
:102118001DF035FF4FF4FA701DF006FE0021084649
:102128001DF02DFF104B1B6803F00703A3420FD8C7
:1021380004B010BD00F5FA6303930E4B0293002020
:10214800019000900346032207491DF003FEAEE705
:10215800094B029300200190009003460322024994
:102168001DF0F8FDE4E700BF90CB002030F8FFFF3A
:1021780080C50020B82B0400D02B0400014B186840
:10218800704700BF84C50020014B1860704700BF2E
:1021980080C5002010B586B00378042B00F20B81AF
:1021A800DFE813F00500510070000901D3008B4BE4
:1021B8001B6803F00703022B2CD841F288301DF06E
:1021C80079FE0446854B1B6803F00703022B2CD8C5
:1021D800834B9C42B8BF1C4604F5FA60C117C9037B
:1021E80041EA5041C00340F2E733C0184FF47A7215
:1021F8004FF0000341F10001FEF7CCFE02460B460A
:1022080002210091002000F0ADFB764B01221A60FC
:1022180006B010BD744B0293002001900090034655
:1022280003226E491DF096FDC7E700F5FA63039394
:102238006E4B0293002001900090034603226749E9
:102248001DF088FDC4E7654B1B6803F00703022BEC
:102258000DD801F077FB00F0F7FD624B02221A60FF
:1022680000F012FE0028D3D100F01AFED0E7604B30
:1022780002930020019000900346032257491DF065
:1022880069FDE6E7554B1B6803F00703022B14D8DA
:1022980000F0D8FC00F0EEFDD0B9012300934FF414
:1022A80020320023022000F05DFB4C4B1B6803F03A
:1022B8000703022B10D800241EE04E4B0293002087
:1022C800019000900346032244491DF043FDDFE7D7
:1022D800002000F0EBFDE8E7474BD3F88830039384
:1022E800464B0293002001900090034603223B498D
:1022F8001DF030FDDFE701343F4BD3F88830A342AF
:102308001FDD364B1B6803F00703022BF3D93A4A4B
:10231800631C03EB430302EB83035B68059304EB45
:10232800440302EB8302D36804930394344B02936F
:102338000020019000900346032228491DF00AFD61
:10234800D9E7284B02221A6062E7244B1B6803F086
:102358000703022B15D8214B1B6803F00703022B38
:102368001AD8022000F052FB002000F04FFB062094
:1023780000F04CFB00F07EFDC8B91A4B0A221A6027
:1023880046E7204B02930020019000900346032269
:1023980012491DF0DFFCDEE71B4B02930020019081
:1023A8000090034603220D491DF0D4FCD9E7002014
:1023B80000F070FDE1E7094B1B6803F00703022BEF
:1023C8007FF626AF114B0293002001900090034640
:1023D800032202491DF0BEFC1AE700BF90CB002083
:1023E80030F8FFFF80C50020E02B0400B82B040064
:1023F800F82B0400142C0400F01E01202C2C0400DF
:10240800482C04006C2C0400842C04009C2C040030
:1024180000B5ADF5097D16E0869906A801F064FCC3
:102428001EE006A8FFF7B6FE1AE0AB4B1B6803F0E8
:102438000703022B4AD802F0C1F8A84B04221A60FD
:102448000A201DF071FC40F26762002304A802F024
:1024580065FA28B99DF81030002BDDD0012BE0D0AB
:102468009E4B1B689E4A1360013B142B00F29F8110
:1024780001A252F823F000BF3324010019260100FD
:10248800EB240100452601001925010071260100F1
:10249800412501009D260100B7270100C92601003A
:1024A800B7270100332701009B2501005F270100A2
:1024B800C52501008B270100EF250100B727010082
:1024C800B7270100B72701006F250100854B02934C
:1024D800002001900090034603227F491DF03AFC3A
:1024E800A9E77D4B1B6803F00703022B05D802F010
:1024F800BFF87A4B06221A60A2E77B4B02930020B2
:10250800019000900346032273491DF023FCEEE777
:10251800714B1B6803F00703022B02D802F0FCF88A
:102528008EE7724B0293002001900090034603222D
:1025380069491DF00FFCF1E7674B1B6803F00703BF
:10254800022B05D802F06CF9644B15221A6077E764
:10255800674B0293002001900090034603225E49D6
:102568001DF0F8FBEEE75C4B1B6803F00703022B3A
:1025780004D802F0A3F9594B186061E75D4B029348
:102588000020019000900346032253491DF0E2FB0E
:10259800EFE7514B1B6803F00703022B03D84F4B9F
:1025A8000A221A604CE7544B0293002001900090D5
:1025B8000346032248491DF0CDFBF0E7464B1B6854
:1025C80003F00703022B03D8444B10221A6037E7A5
:1025D8004A4B0293002001900090034603223E4993
:1025E8001DF0B8FBF0E73C4B1B6803F00703022B18
:1025F80003D83A4B0A221A6022E7414B0293002083
:10260800019000900346032233491DF0A3FBF0E735
:10261800314B1B6803F00703022B04D80121022069
:1026280001F034F80CE7374B02930020019000903A
:102638000346032228491DF08DFBEFE7264B1B6854
:1026480003F00703022B04D80121022001F01EF831
:10265800F6E62D4B029300200190009003460322DA
:102668001D491DF077FBEFE71B4B1B6803F00703C1
:10267800022B04D80121022001F008F8E0E6234BE0
:1026880002930020019000900346032212491DF096
:1026980061FBEFE7104B1B6803F00703022B04D81C
:1026A8000121022000F0F2FFCAE6194B0293002034
:1026B800019000900346032207491DF04BFBEFE70A
:1026C800054B1B6803F00703022B23D801210220C6
:1026D80000F0DCFFB4E600BF90CB002080C50020EE
:1026E80084C50020B02C0400C02C0400DC2C04009D
:1026F800FC2C04000C2D04001C2D0400342D0400B7
:102708004C2D0400682D04007C2D04009C2D040031
:10271800C02D0400284B029300200190009003462E
:10272800032226491DF016FBD0E7244B1B6803F053
:102738000703022B04D80121022000F0A7FF7FE63F
:102748001F4B0293002001900090034603221B496F
:102758001DF000FBEFE7194B1B6803F00703022B82
:1027680004D80121022000F091FF69E6154B02937D
:102778000020019000900346032210491DF0EAFA58
:10278800EFE70E4B1B6803F00703022B04D8012167
:10279800022000F07BFF53E60B4B029300200190D0
:1027A80000900346032205491DF0D4FAEFE76420A0
:1027B8001DF0BAFA44E600BFD42D040090CB0020E7
:1027C800F82D0400142E0400302E040010B586B035
:1027D8000446002300930193029303930493059303
:1027E8002EF0CDFE8E464A0142EAD06243011B1A02
:1027F80062EB0102920042EA93729B001B1842EBC3
:102808000102D20042EA5372C3F3103343EA42434F
:10281800D20B02930392294B9C4215D0284B9C4221
:102828002CD0284B9C422DD0274B9C422ED0274B96
:102838009C422FD0264B9C4230D0264B9C421BD129
:1028480005238DF8003002E000238DF800309DF854
:102858000030052B26D8204AD35C8DF810301F4B4A
:10286800D3E8AF3F13B19DF81030FBB90022002325
:1028780069461B481AF0D2FA06B010BD01238DF83C
:102888000030E4E702238DF80030E0E703238DF8F9
:102898000030DCE706238DF80030D8E704238DF8F4
:1028A8000030D4E700238DF81030D8E70022002349
:1028B80069460C481AF0B2FADEE700BF20D00020C3
:1028C800E8CF0020B0CF002078CF002098CE00209D
:1028D80008CF0020D0CE0020BC1E0120B81E012049
:1028E800E4CC002014CD002010B5154C0022214660
:1028F80014482EF0B4FE0022214613482EF0AFFEF5
:102908000022214611482EF0AAFE00222146104836
:102918002EF0A5FE002221460E482EF0A0FE002231
:1029280021460D482EF09BFE002221460B482EF032
:1029380096FE002221460A482EF091FE10BD00BFE7
:10294800D527010020D00020E8CF0020B0CF0020FC
:1029580078CF002040CF002008CF0020D0CE002024
:1029680098CE0020F0B587B004469DF83050062870
:1029780034D8DFE800F0201E1C1A18220400194879
:10298800062C01D818490D5500260027CDE9006707
:102998001BF010FB154B1B6803F00703022B0ED826
:1029A800002007B0F0BD1248EAE71248E8E71248ED
:1029B800E6E71248E4E71248E2E71248E0E7049540
:1029C8000394114B0293002401940094234603229C
:1029D800064920461DF0CDF92046E2E76FF01500C4
:1029E800DFE700BF98CE0020BC1E01209CCB002052
:1029F80008CF002078CF0020B0CF0020E8CF0020FB
:102A080020D00020D0CE0020502E040008B5062883
:102A180016D8DFE800F0110F0D0B091304000A485F
:102A28002EF029FE002008BD0848F9E70848F7E716
:102A38000848F5E70848F3E70848F1E70848EFE7EA
:102A48006FF01500EFE700BF98CE002008CF0020F8
:102A580078CF0020B0CF0020E8CF002020D0002081
:102A6800D0CE002010B586B0044600210091019117
:102A78000291039104910591694608481AF02AFACF
:102A8800A646EC46BCE80F00AEE80F009CE8030041
:102A98008EE80300204606B010BD00BFE4CC00203D
:102AA80000B5ADF50F7D4FF0FF324FF0FF3304A8AE
:102AB800FFF7D8FF4FF4047200210AA82FF01DF881
:102AC80001238DF828300DF1300E0DF1100CBCE803
:102AD8000F00AEE80F009CE803008EE803000AA888
:102AE80001F010FF0028DED0074B1B6813F0060F1B
:102AF800D9D0064B02930020019000900346022291
:102B080001491DF036F9CEE79CCB0020702E040059
:102B180030B585B0002000F051FA414B1880414B88
:102B28001B6803F00703022B41D83F4D00202860A3
:102B380000F044FA040400F041FA20432860394BBD
:102B48001B6803F00703022B3DD8384C0023C4F858
:102B58008830334B1B88A360334B19682160344B92
:102B680098881DF09CF96060002838D02D4B1B68B0
:102B780003F00703022B3AD82D4B012283F82120BA
:102B8800274A12889A80294A52689A60264A126807
:102B98001A75244B1B6803F00703022B35D8244B06
:102BA80000225A62012283F8202005B030BD03902C
:102BB800204B0293002001900090034603221949FC
:102BC8001DF0E6F8B1E703901B4B0293002001903B
:102BD80000900346032213491DF0DAF8B5E7124BBB
:102BE8001968134B98881DF05AF96060BEE70F4BBF
:102BF8005B680393114B02930020019000900346F9
:102C0800032208491DF0C4F8B6E70D4B02930020D3
:102C1800019000900346032202491DF0B9F8BEE76F
:102C2800A0660120E0CB002090240120F01E0120A6
:102C3800C41E0120B42E0400C02E0400D02E0400AF
:102C4800DC2E0400F0B585B0002474E004EB4403E6
:102C58009A00574B1344DB680393564B02930020AA
:102C6800019000900346032253491DF091F87BE040
:102C78004F4802EB42018B0003440026DE60531CE0
:102C880003EB4303990001444E60C0F8882034E008
:102C9800494B1B6803F00703022B01D8334619E0A0
:102CA8000391464B029300200190009003460322B3
:102CB80041491DF06DF8F1E75D1C414F03EBC3037B
:102CC800180105EBC50319019022394438442EF048
:102CD800DAFE2B463B4A1568013DAB42ECDB05EBBF
:102CE800C502130190220021354818442EF005FF33
:102CF800344B1D60013E13E00136324B1B689E4287
:102D080017DA06EBC6031A012D4B1344996804EB36
:102D180044039A00264B1344DB89B3EB114FB7D019
:102D2800234BD3F88830002BE6D1274B00221A70AA
:102D3800E2E7013C01341E4BD3F888309C4234DA78
:102D48001B49631C03EB430082000A445268013AA2
:102D5800800001444A60002AECD1174B1B6803F03D
:102D68000703022B3FF672AF2346114AD2F8882098
:102D7800013A9A427FF77CAF5A1C0D4902EB420593
:102D8800A8000844C56803EB430398000844C560DD
:102D9800531C03EB430398000844456802EB4200C8
:102DA800830019444D601346DFE705B0F0BD00BF4E
:102DB800F01E0120F42E0400E0CB0020142F0400A4
:102DC8009824012094240120CB660120002300E0F0
:102DD8000133084A12689A4209DD03EBC301064A27
:102DE80002EB011252688242F2D1012070470020A2
:102DF800704700BF88C50020F01E012030B40023B2
:102E080000E001330E4A12689A420ADD050203EB1C
:102E1800C30212010B4CA258B2EB002FF1D10120D2
:102E28000BE0084802EBC2031C0100EB0313055139
:102E380099600132024B1A60002030BC704700BF15
:102E480088C50020F01E012010B5084B1C68012C15
:102E58000BDD013C04EBC40213019022002104485D
:102E680018442EF04AFE014B1C6010BD88C5002096
:102E7800F01E0120034BD3F88800B0FA80F0400917
:102E8800704700BFF01E0120014B1878704700BF43
:102E9800CB660120014B1870704700BFCB6601203C
:102EA800014B1878704700BFCA660120014B1870A3
:102EB800704700BFCA66012000487047C41E012041
:102EC80010B584B000240BE01A4B02930020019047
:102ED80000900346032218491CF05AFF13E00134FE
:102EE800164BD3F888309C4221DA04EB4402134B8A
:102EF80003EB8203DB688342F1D10F4B1B6803F0BD
:102F08000703022BE0D8FFF7D7FF0C4B04EB440272
:102F180003EB8202D16801615269C261013404EB9A
:102F2800440403EB840303225A60012000E00020DC
:102F380004B010BD402F0400E0CB0020F01E01209B
:102F4800014B1888704700BFA066012070B5054680
:102F58000C464FF484702EF07BFD88B1064622465D
:102F6800B4F5807F28BF4FF48072C0F80421294649
:102F780004302EF088FD314603482EF092F870BDDB
:102F880002481EF0C2FAFAE75CCD0020642F040064
:102F980008B502460B4602481AF0C2F808BD00BF41
:102FA8005CCD002008B5044B186810B11CF04BFF2D
:102FB80008BD4FF0FF30FBE7382A012010B5044662
:102FC8001CF053FF04B12046224BA3FB0023DB086F
:102FD80003EB8303A0EB4303062B13D983B283EAE5
:102FE800102080B2DB009BB2584043081A4AA2FB6B
:102FF80003239B0BC3EBC333A0EB430080B2013028
:1030080080B210BD043B022B11D8C0F3CF0340019E
:1030180080B243405A081049A1FB0212920BC2EB3E
:10302800C232A3EB42039BB2013398B2E9E740F303
:10303800000303F4344383EA50035808064AA2FB0A
:103048000020800BC0EBC030A3EB400080B2013001
:1030580080B2D6E7CDCCCCCC0300018000B5B3B0AC
:1030680001E017F0D7F84FF0FF324FF0FF3301A916
:10307800174819F02FFF0028F5D19DF8C43013F038
:10308800010F05D0134B186810B101A917F0E8FF1C
:103098009DF8C43013F0020F0CD00F4B186848B1DC
:1030A80011A917F0DDFF00231A4609210A48006814
:1030B80025F079FB9DF8C43013F0040FD1D0074BED
:1030C80018680028CDD021A917F0CAFFC9E700BFAA
:1030D80084CC0020442A0120402A01203C2A0120D7
:1030E80030B585B03748384B18602DF003FE0028FE
:1030F80049D01CF0EDFE26F04EFD1CF0E9FE17F05D
:10310800F7FB324C2060002118F00CF800231A4617
:103118000121206825F047FB2D4D2946206817F02E
:103128009FFF1CF0D5FE17F0E3FB2A4C20602A49CC
:1031380017F096FF00231A460921206825F033FB73
:103148001CF0C6FE17F0D4FB244C2060002117F0B9
:10315800E9FF00231A460421206825F024FB2946AC
:10316800206817F07DFF184B186883685B689847DC
:1031780017F050F81A4B1B6803F00703022B14D8FA
:10318800002005B030BD164B1B6813F0060F02D1A6
:103198006FF00400F5E7134B02930190009003468B
:1031A80002220F491CF09AFEF2E70F4B029300240B
:1031B8000194009423460322094920461CF08EFE00
:1031C8002046DEE770250400482A0120442A012011
:1031D800F0410400402A0120B42F04003C2A0120B9
:1031E800A0CB0020842F0400C02F040010B5B6B077
:1031F8000446C122002105A82EF07FFCACB13F2275
:10320800214605A82EF0EFFD03238DF8D4300022C7
:10321800002305A90B4819F001FE20B10A4B1B68D1
:1032280013F0060F03D136B010BD084CE7E7084B82
:1032380002930020019000900346022202491CF0EC
:103248004DFEF0E784CC0020A0CB0020F041040024
:10325800E42F040010B5B6B00446C122002105A829
:103268002EF04BFCACB13F22214625A82EF0BBFD29
:1032780006238DF8D4300022002305A90B4819F045
:10328800CDFD20B10A4B1B6813F0060F03D136B0F1
:1032980010BD084CE7E7084B02930020019000900E
:1032A8000346022202491CF019FEF0E784CC0020F4
:1032B800A0CB0020F04104000C30040010B5B6B0DB
:1032C8000446C122002105A82EF017FCACB13F220C
:1032D800214615A82EF087FD07238DF8D43000224B
:1032E800002305A90B4819F099FD20B10A4B1B686A
:1032F80013F0060F03D136B010BD084CE7E7084BB2
:1033080002930020019000900346022202491CF01B
:10331800E5FDF0E784CC0020A0CB0020F0410400BC
:103328003430040000B585B035482DF0E3FCC8B949
:10333800344B1B6813F0070F2AD131482DF0DAFC03
:10334800002830D12F4B1B6813F0070F41D109F02B
:10335800DBFF20B12B4B1B6813F0070F44D105B0DE
:103368005DF804FB4FF4D01127481CF0EEFD254B07
:103378001B6803F00703022BDFD9244B02930020BC
:1033880001900090034603221E491CF0E9FDD4E792
:103398001F4B029300200190009003460122194917
:1033A8001CF0DEFDC9E74FF4D0111A481CF0CDFD22
:1033B800144B1B6803F00703022BC8D9164B029362
:1033C800002001900090034603220E491CF0C8FD1E
:1033D800BDE7124B029300200190009003460122A2
:1033E80008491CF0BDFDB2E70D4B02930020019087
:1033F80000900346012203491CF0B2FDAFE700BF6D
:103408000C250400B4CB00201C31040078300400E3
:103418009830040014310400B4300400D43004009F
:10342800F43004002DE9F0410D46C043FDF798FB48
:103438004FF07C51FDF7E8FB01461048FDF7DAFA3A
:103448000446B5B10E4B1D6801351D600D4FD7F808
:1034580000804146FDF7CEFA06462846FDF780FB78
:1034680001463046FDF784FC01464046FDF7C4FAA4
:1034780038602046FDF718FDBDE8F0810000A0C1C6
:103488005C2B0120602B012000B587B00846114A4B
:103498001368013313600021B0F90000FFF7C2FF81
:1034A8000D4B1B6803F00703022B02D807B05DF829
:1034B80004FB00B2074B1B6804930390074B02936D
:1034C8000020019000900346032203491CF072FD7E
:1034D800ECE700BF642B0120D8CB00202C3104007E
:1034E80000B587B00846114A1368013313600021FC
:1034F800B0F90800FFF796FF0D4B1B6803F00703B0
:10350800022B02D807B05DF804FB00B2074B1B681A
:1035180004930390074B0293002001900090034608
:10352800032203491CF046FDECE700BF642B012091
:10353800D8CB00206831040000B585B052B1134BD8
:103548001B6813F0070F0BD1104B1B6803F0070320
:10355800022B10D80E4819F021FE05B05DF804FBC7
:103568000C4B02930020019000900346012207496A
:103578001CF020FDE8E7084B029300200190009022
:103588000346032201491CF015FDE3E7D8CB0020D0
:1035980044CD0020A4310400B031040008B502482D
:1035A80019F0FCFD08BD00BF44CD002008B5024855
:1035B80019F0F4FD08BD00BF44CD002010B50B691B
:1035C80093F900402246898904481DF09EFF044B68
:1035D8001C70044819F0E2FD10BD00BFC43104009E
:1035E800CC66012044CD002070B584B00E46154647
:1035F8001C460E4B1B6803F00703022B0AD8012157
:10360800B6F90000FFF70EFF21462846FFF79EFC9B
:1036180004B070BD0394064B029300200190009003
:103628000346032201491CF0C5FCE8E7D8CB00207B
:10363800D031040038B51446114D13682B60137946
:103648002B71681F1DF095FA15F8053C13F0070358
:1036580004D16B1F5A880B4B1A8038BD012BFCD143
:10366800094B1A462068616803C221891180A3F1B9
:103678000C0420461DF0A7FA6288024B1A80ECE77A
:103688002D2B0120A2660120582A012000B585B003
:103698004FF0FF324FF0FF330D4819F0A7FD0D48EA
:1036A80018F06CFD20B10C4A126812F0070F02D115
:1036B80005B05DF804FB0390084B029300200190CD
:1036C80000900346012204491CF074FCF0E700BF97
:1036D80044CD002010D10020D8CB0020EC310400CC
:1036E80070B58EB00D4616461C464FF42F730A4629
:1036F800014636482EF0D4F9052C41D00A2322463B
:10370800314633482EF0CCF900220023CDE90423BA
:10371800304B1B6806930A230793052C37D00123E7
:103728008DF8203000238DF8213040F29A62ADF8F0
:1037380022200993264B0A93244B0C930D954FF0A6
:10374800FF324FF0FF33244819F050FD04A818F059
:103758005FFD20B1214A126812F0070F1BD11D4BE3
:103768001B6847F23052934221D00133194A136043
:103778001A4B1B6803F00703022B1CD80EB070BD50
:103788000A232246314612482EF08AF9BCE7002364
:103798008DF82030C6E70390114B0293002001906A
:1037A8000090034601220D491CF004FCD7E7094BA1
:1037B80001221A60DCE70B4B029300200190009075
:1037C8000346032205491CF0F5FBD7E7682B0120C7
:1037D800242E0120BCC5002044CD0020D8CB0020D9
:1037E800F83104003446040010B50C4C282200219E
:1037F80020462EF082F947F6A823A36002232374FB
:103808000023C4F81230C423A37540F29A632383BB
:10381800034BE3610A2384F8203010BD10D1002047
:1038280000603D0800B585B022F0F8FD20B13C4AA3
:10383800126812F0070F17D13A4818F03BFC28B16C
:10384800374B1B6803F00703022B19D8364818F0CA
:1038580063FC00282CD0324B1B6803F00703022BB3
:103868001AD805B05DF804FB0390304B0293002092
:10387800019000900346012229491CF09BFBDBE7DD
:1038880003902B4B029300200190009003460322E3
:1038980023491CF08FFBD9E70390264B02930020A5
:1038A80001900090034603221D491CF083FBD8E7D2
:1038B800FFF79AFF1A4B1B6803F00703022B16D871
:1038C800174B1B6803F00703022B1ED8144B1B6809
:1038D80003F00703022BC4D9174B02930020019071
:1038E8000090034603220E491CF064FBB9E740F23E
:1038F8009A630393114B02930020019000900346B2
:10390800032207491CF056FBDAE70D4B029300200F
:10391800019000900346032201491CF04BFBD5E7B8
:10392800D8CB00208CC500204433040004320400A6
:10393800203204004032040098320400643204004B
:1039480074320400034B002283F8212083F82020DE
:103958005A84704710D1002010B584B00C4610B3BB
:10396800224B012183F8211083F82000204B1B688B
:1039780003F00703022B0AD83CB11C4B5C841C4B98
:103988001B6803F00703022B24D804B010BD039072
:10399800184B02930020019000900346032214491B
:1039A8001CF008FBE8E7114B002283F8212083F87C
:1039B80020200F4B1B6803F00703022BDCD90E4BAA
:1039C80002931046019200921346032208491CF004
:1039D800F1FAD1E70394094B02930020019000907B
:1039E8000346032202491CF0E5FACEE710D1002075
:1039F800D8CB0020D4320400FC3204002033040069
:103A080030B587B0002878D005463F4B18680028A5
:103A180076D0E3238DF813300323019305AB00938D
:103A280001230DF1130240211CF0D3FA041E42DBDE
:103A38009DF814309DF8150040EA032000B220F0EC
:103A4800030080B2FDF788F83049FDF7DDF84FF044
:103A58005E51FDF7D9F82E49FCF7CCFF2860E52325
:103A68008DF813300323019305AB009301230DF167
:103A780013024021244800681CF0ABFA041E2BDB1B
:103A88009DF814309DF8150040EA032000B220F09C
:103A9800030080B2FDF760F81E49FDF7B5F84FF056
:103AA8005E51FDF7B1F81C49FCF7A4FF68600024DB
:103AB800204607B030BD194B1B6813F0070FF7D02D
:103AC8000394174B029300200190009003460122B3
:103AD80012491CF094FAEBE7104B1B6813F0070F20
:103AE800E6D003940F4B0293002001900090034608
:103AF80001220A491CF083FADAE76FF01504D7E7C8
:103B08006FF01204D4E700BF382E012052B82F43BB
:103B180066663B420000FA420000C040B8CB002075
:103B2800543304007C33040008B50448FFF768FFE9
:103B3800002801DB012008BD0020FCE7302E012011
:103B480010B584B02C482D4B18602DF0D3F890B1E7
:103B5800FFF7EAFF00283AD0294B1B6803F0070358
:103B6800022B1AD8264B1B6803F00703022B21D817
:103B7800002004B010BD224B1B6813F0060F02D1C1
:103B88006FF01200F5E71F4B029301900090034677
:103B980002221B491CF033FAF2E7402303931A4B25
:103BA80002930020019000900346032214491CF060
:103BB80026FAD7E7154B0293002401940094234674
:103BC80003220F4920461CF01AFA2046D1E70C4B75
:103BD8001B6813F0060F01D10020CAE70C4B0293B3
:103BE80000240194009423460222054920461CF033
:103BF80006FA2046BDE700BF5C250400382E0120E8
:103C0800B8CB0020A0330400D433040004340400EB
:103C18002834040000B583B06846FFF7F1FE20B1F0
:103C28000020044903B05DF804FB0198FCF7ECFBA5
:103C3800F8E700BF0000F0BF10B5ADF5087D02E061
:103C480020461CF0B4F84FF0FF304FF0FF31FFF77B
:103C58009FF90028F7D004464FF40472002104A805
:103C68002DF04BFFD4F80421B2F5007F28BF4FF4A4
:103C7800007286924FF40273211D06A82DF010FFE2
:103C880004A800F03FFE0028DAD0084B1B6813F0A8
:103C9800060FD5D0064B02930020019000900346F2
:103CA800022202491CF0BAF9CAE700BFACCB0020D7
:103CB800583404000A4B1B6803F00703022B00D892
:103CC800704700B585B0074B029300200190009023
:103CD8000346032202491CF0A1F905B05DF804FB74
:103CE800ACCB0020803404002DE9F0419AB00446A2
:103CF8000D460020FEF78AFE9DB9A94B1B6803F00C
:103D08000703022B02D81AB0BDE8F081A54B029335
:103D180000200190009003460322A1491CF07EF97F
:103D2800F1E72378A04843701CF027FAFEF726FA3B
:103D38000238082800F2FB83DFE810F00900F903D5
:103D48005401F9036B02F9034203F903E603944BA8
:103D58001B6803F00703022B2BD8934B1B7803F047
:103D6800F003102B45D08E4B1B6803F00703022B82
:103D78002AD841F288301CF09DF88C4B98422EDAF4
:103D880000200146C90341EA5041C00340F2E7332D
:103D9800C0184FF47A724FF0000341F10001FDF7AB
:103DA800F9F802460B46022100910020FEF7DAFDE1
:103DB800A9E77F4B0293002001900090034603225D
:103DC80077491CF02BF9C8E77A4B02930020019041
:103DD80000900346032272491CF020F9C9E741F21A
:103DE80088301CF067F800F59C5108310846C9175F
:103DF800C8E76B4B1B6803F00703022B57D86E48C4
:103E0800FFF7F4F96D48FFF725FA6D4BD4F8010078
:103E18009860B4F80510E27999819A7318461CF0F5
:103E2800D5F96848237A43701CF022FA6648D4F81A
:103E38000910D4F80D20D4F81130C0F80E10C0F8CD
:103E48001220C0F81630637D83761CF0BFFCFFF7A4
:103E58001BF8002855D05C4B1B7813F0070F31D0A6
:103E68004F4B1B6803F00703022B3FD841F2883001
:103E78001CF020F84D4B984280F2888000200146C3
:103E8800C90341EA5041C00340F2E733C0184FF478
:103E98007A724FF0000341F10001FDF77BF802460A
:103EA8000B46012100910020FEF75CFD2BE7474BF4
:103EB80002930020019000900346032238491CF029
:103EC800ADF89CE70120FEF75FF9354B1B6803F05E
:103ED8000703022BCAD93E4B0293002001900090A1
:103EE800034603222E491CF099F8BFE7394B029389
:103EF8000020019000900346032229491CF08EF807
:103F0800B4E7314B1B7803F00703012B10D0244B87
:103F18001B6803F00703022BA8D92F4B029300203C
:103F280001900090034603221D491CF077F89DE795
:103F38001B4B1B6803F00703022B18D8204B18688B
:103F4800596820F07F40FEF759FFD8B1144B1B6821
:103F580003F00703022B89D9204B0293002001901C
:103F68000090034603220E491CF058F87EE71C4BCC
:103F780002930020019000900346032208491CF098
:103F88004DF8DBE70320FEF7FFF86FE741F28830D2
:103F98001BF090FF00F59C5108310846C9176FE7E0
:103FA800ACCB002094340400B03B012079ECFFFF37
:103FB800A4340400BC340400E834040028350400A8
:103FC800A03B01209C3B0120803B0120D43404000D
:103FD800F034040034350400E4350400BC35040032
:103FE80078350400B64B1B6803F00703022B20D872
:103FF800B448FFF7FBF8B448FFF72CF9B34B1B782C
:1040080003F0F003202B1FD0102B00F0C280AC4B24
:104018001B6803F00703022B7FF675AEAC4B0293C7
:1040280000200190009003460322A5491BF0F6FFEB
:1040380069E6A84B029300200190009003460322F2
:104048009F491BF0EBFFD3E79D4B1B6803F0070369
:10405800022B38D8A04D05F10C03D4F80100D4F890
:10406800051003C3B4F809201A8028461CF0D0F8BC
:104078006868FEF7ABFE002844D1914B1B6803F03B
:104088000703022B2AD841F288301BF013FF934B09
:1040980098422DDA00200146C90341EA5041C00385
:1040A80040F2E733C0184FF47A724FF0000341F141
:1040B8000001FCF76FFF02460B460121009100202A
:1040C800FEF750FC1FE6864B0293002001900090FB
:1040D800034603227A491BF0A1FFBBE7814B0293F9
:1040E800019000900346032275491BF097FFCAE729
:1040F80041F288301BF0DEFE00F59C51083108467D
:10410800C917C9E77848E37A43701CF0B1F87748D3
:10411800E16822696369C0F80E10C0F81220C0F87F
:104128001630238B43831CF0B9FBFFF70BFC6A4B5B
:104138009868FEF7C5FE18B10520FEF725F8E2E5F8
:10414800FEF7BAFE05466A4C636883602368037508
:10415800FEF7F6FEA880FEF725FFE861D4F8883060
:1041680003EB430204EB820250615B498968D1602A
:10417800013303EB430304EB830303225A602961F1
:10418800D4F888300133C4F888300520FDF7FCFFE7
:10419800B9E5574BDB68002B3FF437AE484B1B683B
:1041A80003F00703022B1FD841F288301BF082FE70
:1041B8004A4B984223DA00231946C90341EA53417E
:1041C800DB0340F2E73298184FF47A724FF000039D
:1041D80041F10001FCF7DEFE02460B460121009189
:1041E8000020FEF7BFFB8EE5424B029300200190B2
:1041F80000900346032232491BF010FFD4E741F236
:1042080088301BF057FE00F59C5108310B46C91742
:10421800D3E72B4B1B6803F00703022B17D82B4B54
:104228001B7803F0F003202B1CD0254B1B6803F0F0
:104238000703022B7FF667AD2F4B029300200190F6
:104248000090034603221E491BF0E8FE5BE52B4B5A
:1042580002930020019000900346032218491BF0A6
:10426800DDFEDCE71748FEF7C1FF2548FEF7F2FF41
:10427800134B1B6803F00703022B43D80EABD4F88B
:104288000100D4F8051003C3B4F809201A800BA85C
:104298001BF0BEFF0C98FEF799FD00283DD1084B96
:1042A8001B6803F00703022B7FF62DAD0D4B02931D
:1042B800019000900346032201491BF0AFFE22E55E
:1042C800ACCB0020E834040048360400B03B0120A1
:1042D800C03604002C360400683B012079ECFFFF4F
:1042E8005436040068360400643B0120483B012032
:1042F800F01E012088360400F8360400DC3604007D
:1043080090380400954B02930020019000900346DA
:10431800032293491BF082FEB0E7E37A8DF815304B
:1043280005A81BF0A5FFE368CDF82330228AA37CFB
:10433800ADF827208DF8293007A81CF028FBE37C6E
:104348008DF8193006A81BF093FF6069A169E2692E
:10435800236ACDF85700CDF85B10CDF85F20CDF873
:10436800633011A81CF026F87D4B1B6803F0070387
:10437800022B1AD87B48FEF7A1FF64201BF05DFED4
:104388000120794B1870794B1B68013B9DF852103E
:1043980003EBC303764A02EB0313C3F88410FEF75A
:1043A80035FB0820FDF7F0FEADE4724B02930020C8
:1043B800019000900346032269491BF02FFED9E7BC
:1043C800674B1B6803F00703022B15D86A4B1B7851
:1043D8000F2B1CD9624B1B6803F00703022B7FF6D7
:1043E80092AC664B02930020019000900346032292
:1043F8005B491BF013FE86E4614B02930020019099
:1044080000900346032256491BF008FEDEE7B4F885
:104418000130ADF82E300BA81BF0C1FED4F80330E4
:10442800129311A81BF030FFBDF84650B5F52F7F49
:1044380001D94FF42F7540F2E1232A46E11D514876
:104448002DF02EFB0F2D4AD94F4BD3F8C102D3F8CC
:10445800C512D3F8C952D3F8CD422E462746044692
:104468000D460022494BFCF7B7FA00283DD0002240
:10447800474B20462946FCF791FA002835D0002200
:10448800002330463946FCF79DFA70B30022414BB1
:1044980030463946FCF782FA38B322462B463E4866
:1044A8001DF033F832463B463C481DF02EF8DFF845
:1044B800F080CDE900453B4A302140461DF033F8F5
:1044C800394CCDE90067394A302120461DF02BF8D8
:1044D8004046FEF78BFE2046FEF7BCFE05E0204B6B
:1044E8001B6803F00703022B03D80820FDF74CFED6
:1044F80009E42F4B02930020019000900346032209
:1045080017491BF08BFDF0E7154B1B6803F00703F9
:10451800022B7FF6F8AB274B029300200190009006
:10452800034603220E491BF079FDFFF7ECBB0C4B49
:104538001B6803F00703022B7FF6E5ABFDF71EFEB1
:1045480003901D4B02930020019000900346032224
:1045580003491BF063FDFFF7D6BB00BF30370400EB
:10456800ACCB00205C370400CB66012088C5002056
:10457800F01E012044370400B03B012084370400BA
:104588006837040065380120A4350120000049C0BF
:104598000000594000005E40B8370400D0370400DE
:1045A80074350120E437040044350120F437040051
:1045B80004380400243804004838040030B583B0B7
:1045C800FEF77AFC0446012380F82030234A13685A
:1045D800037552688260836100234362FEF754FCCE
:1045E8001F48FEF703FE1F48FEF734FE1E4D214606
:1045F80028461CF049FB05232A461621E818FFF730
:104608006FF8FFF79FF941F288301BF053FC174B06
:10461800984219DA00200146C90341EA5041C00313
:1046280040F2E733C0184FF47A724FF0000341F1BB
:104638000001FCF7AFFC02460B4602210091002066
:10464800FEF790F903B030BD41F288301BF032FC20
:1046580000F59C5108310846C917DDE7F01E012016
:104668008038040028350400EC34012079ECFFFF81
:1046780070B582B00420FEF7C9F9FEF71DFC0446A8
:10468800002380F820301F4E3368013B1E4D03EB9A
:10469800C3031B01EB580375FEF752FCA080336877
:1046A800013B03EBC302110105EB02125268A26041
:1046B8006A58A26103EBC30305EB0315AB682361DA
:1046C8001B0CA3811148FEF791FD1148FEF7C2FDAE
:1046D800104D214628461CF0B1FB0A232A461A2110
:1046E800E818FEF7FDFFA189207DFFF735F90223C1
:1046F80000934FF4203200230120FEF733F902B073
:1047080070BD00BF88C50020F01E0120803804005D
:10471800483604007834012030B585B0394B1B6821
:1047280003F00703022B46D8FEF7C6FB04463648BB
:10473800FEF75CFD3548FEF78DFD354D21462846D0
:104748001CF0A1FC05232A46242105F10A00FEF7E6
:10475800C7FF2C4B1B6803F00703022B36D8002138
:10476800207DFFF7F9F82B4B1B78002B39D041F24D
:1047780088301BF09FFB10F5FA6F39DC00200146EA
:10478800C90341EA5041C00340F2E733C0184FF46F
:104798007A724FF0000341F10001FCF7FBFB02467F
:1047A8000B46022100910020FEF7DCF81520FDF7EA
:1047B800EBFC05B030BD184B02930020019000902F
:1047C800034603220F491BF029FCADE7134B029364
:1047D800002001900090034603220A491BF01EFCAA
:1047E800BDE71520FDF7D0FC0120FEF753FBE0E7FD
:1047F80041F288301BF05EFB00F5FA610846C917E4
:10480800BEE700BFACCB002080380400903804001D
:10481800E0330120CB660120883804009C3804006E
:10482800F8B52048FEF7E2FC1F48FEF713FDFEF737
:1048380043FB0446826A1D4BC3F81421C2619C33B2
:104848008381FFF771F900BB194B0022DA60194A1E
:104858001A61194A5A6102F12742A2F5C302013AC4
:104868009A61134D214628461CF05BFD0A232A460F
:10487800322105F2C120FEF733FF0720FDF784FC43
:1048880041F288301BF0D9FBF8BDFCF73DFD064628
:104898000F46FFF7BFF9064BDE601F61586199614B
:1048A800DFE700BF80380400B4380400F01E0120A0
:1048B8003C2E012000803E409A9999990E4B1B7816
:1048C800BBB90E4B1B6803F00703022B01D801206C
:1048D800704700B585B00A4B029300200190009004
:1048E8000346032205491BF099FB012005B05DF83A
:1048F80004FB0720704700BFCB660120ACCB00202B
:10490800BC38040008B5014600220023024818F00C
:1049180085FA002008BD00BFB4CC002008B50146C8
:10492800014818F0D7FA08BDB4CC002000B585B00E
:10493800104B1B6803F00703022B0FD8FEF7F2FC9D
:10494800FEF770FFFFF7FCF8FEF7CAFBFDF79CFBCC
:10495800FDF75EFD002005B05DF804FB064B0293F1
:104968000020019000900346032202491CF07DF9C3
:10497800E4E700BF90CB00200C3904002DE9F0419A
:1049880084B006460F46154600F0DCF80446C368B6
:104998001BB943691A78002A55D10023E36061687E
:1049A80057F821306361B14232DA5A1C62611A78D1
:1049B8002D2A2DD19A1C62615A78A2602D2A2FD0F7
:1049C8004AB94F4B63612D2128462DF0E5F900289F
:1049D80033D02D23A360D4F80880414628462DF013
:1049E800DBF9B8F13A0F33D0002831D043783A2BAD
:1049F80050D00023236163691B7813B963680133BE
:104A08006360204600F084F8A06804B0BDE8F08137
:104A18003B4B6361204600F07BF84FF0FF30F4E732
:104A28009B78002BCCD101316160354B6361204606
:104A380000F06EF84FF0FF30E7E7204600F068F826
:104A48004FF0FF30E1E75A1C42611B788360C2E7F0
:104A580063691B7813B963680133636023683BB1EA
:104A68002B783A2B04D0274B1B6813F0070F04D17F
:104A7800204600F04DF83F20C7E7CDF80C80224BC8
:104A88000293002001900090034601221D491CF06A
:104A9800DCFCEDE763691A7832B12361184B636176
:104AA800636801336360ACE7636801336360B342F2
:104AB80003DA57F823302361F0E7114B63612B7851
:104AC8003A2B0BD0236823B10E4B1B6813F0070F4A
:104AD80009D1204600F01CF83F2096E7204600F058
:104AE80017F83A2091E7CDF80C80084B0293002084
:104AF800019000900346012202491CF0A6FCE8E759
:104B0800F0410400B0CB00202C39040044390400E3
:104B18000268074B1A604268064B1A608268064BA7
:104B28001A60C268054B1A600269054B1A60704723
:104B3800DCC50020D8C50020BC3B0120B83B0120C3
:104B4800B43B012000487047C0C500202DE9F04F54
:104B580091B005920293134602F004020092C3F347
:104B6800C20210F00303019340F02D8280468A466A
:104B78000132041D00284FD0B8F1000F05D0A4EB76
:104B880008030433534500F22182029B5D1E019BFA
:104B980004930693039300264FF0FF3B0427B9467E
:104BA800B8F1000F01D0029B2360531E0793002A1F
:104BB80040F35F81059B13F0020228D00120A4EB8B
:104BC80008018B081AB1B1F5007F80F005820399BE
:104BD8000F2900F20482B8F1000F00F06281DBB205
:104BE80001F140026A4402F8103C02F820BC002897
:104BF80000F0538163F07F0301F140026A4402F838
:104C0800103C049B01330493039B01330393043446
:104C18000022CC4640463DE001F0070A5444CAF160
:104C2800080AA9E7002634E0002632E0002630E032
:104C38000827BC462DE025292BD10BF1010B0126B5
:104C48000427BC4625E04729EED82A2914D32A3957
:104C5800C9B24FF0010E0EFA01F14FF6DA7E11EAF1
:104C68000E0F16D111F0625F40F0C18011F0010FF4
:104C780040F08C8000260CE0252903D10BF1FF3B86
:104C8800002606E001D9002603E0202901D02329C7
:104C9800CCD11D466B1C6978002900F01B81002EC1
:104CA800C9D07A29BED84C29CDD34C392E2961D800
:104CB8000FF2040E5EF821F09B4C01007D4D0100BF
:104CC8007D4D01007D4D01007D4D01007D4D0100B0
:104CD8007D4D01007D4D01007D4D01007D4D0100A0
:104CE8007D4D01007D4D01008D4D01007D4D010080
:104CF8007D4D01007D4D01007D4D01007D4D010080
:104D08007D4D01007D4D01007D4D0100F74D0100F5
:104D18007D4D01008D4D01008D4D0100F74D0100C5
:104D2800F74D0100F74D01009B4C01008D4D01002E
:104D3800394C01007D4D01009B4C01007D4D010067
:104D4800534E01008D4D0100534E01007D4D010071
:104D58007D4D01005B4E0100874D01008D4D010026
:104D68007D4D01007D4D01008D4D01007D4D0100FF
:104D7800814D010000268CE70427BC4689E70427FB
:104D8800BC4686E729786C2925D000263C44013C9E
:104D9800B4FBF7F407FB04F4254620B1211A61445B
:104DA8008A45C0F01681002A58D1BCF1040F00F0E2
:104DB8008980BCF1080F40F015811A99073121F05C
:104DC800070101F108051A95D1E9008908B1C4E97C
:104DD800008908345DE713F8021C6C2903D000260B
:104DE8000427BC46D2E700260827BC46CEE7297828
:104DF8004C291AD01A99073121F0070101F1080648
:104E08001A96D1E90067073424F0070440B1211A43
:104E18000831514513D829784C2913D0C4E90067C3
:104E2800083400260827BC4633E71A99073121F0D1
:104E3800070101F108061A96D1E90067E3E76FF068
:104E48001B00BDE0C4E90067EAE700260427BC466A
:104E58009CE7324600260427BC4697E72C46E146E5
:104E680080461A9A111D1A9112680292079A1D46D5
:104E780096E6624B029A9A4204D3614B9A420AD34D
:104E8800002300E00023002B7FF494AE059B03F081
:104E98000202002093E60123F5E7069B01330693FF
:104EA800B2E610B10AF1010AAEE6009B13B10AF1AD
:104EB800020AA9E60298FCF71DFA00EB0A0303F1BF
:104EC800020AA1E61A990D1D1A95096800B1216018
:104ED8000434DEE68046231AB3F5806F80F08580BF
:104EE80090B1002202609B080370009B83B1069B6F
:104EF800C370049B88F802301BBB019DDDF80C9041
:104F0800DDF810B0029F3DE05344A3F1080057E0DC
:104F1800069B4370EDE701339842EED903F1400256
:104F28006A4412F8101C12F9102C002AF3DA01F066
:104F38007F01A4EB08020132924559D304F8011B02
:104F4800E9E7019B0398E7E7009B43B305F14003BA
:104F58006B4413F8203C04F8013B019EA4EB0803C2
:104F6800334401339A4546D305F140036B4413F8A3
:104F7800103C04F8013B3246394620462CF083FDAC
:104F880034440135A94519D9BBF1000FDCD005F12E
:104F980040036B4413F9103C002BD5DAF1E705F117
:104FA80040036B4413F8103C58F82370002248F86B
:104FB80023203846FCF79EF9461CCFE7A4EB0800EF
:104FC80011B0BDE8F08F6FF00D00F9E76FF01B002E
:104FD800F6E76FF01B00F3E76FF01500F0E76FF0EE
:104FE8001500EDE76FF01500EAE76FF01500E7E749
:104FF8006FF01B00E4E76FF01B00E1E748240400B2
:10500800A0D1040008B5024B1B68984708BD00BF33
:10501800E0C50020014B1860704700BFE0C50020C4
:1050280000B583B002460B4600210091024800F00B
:1050380065FC03B05DF804FB0D50010010B586B0A7
:1050480004460390049100210591009103A90648A4
:1050580000F054FC059B049A934201DA0022E254C2
:10506800059806B010BD00BFE31403002DE9F04118
:1050780084B0044688468268B2F5004F12D30827E8
:105088000837A2EBD7070137B7FA87F7C7F1200728
:105098003B46214655481CF038FA55481CF035FA6D
:1050A80000262FE00427EBE755880AE0D2689142F2
:1050B80012D0013304EBC202A068B0F5004FF3D35D
:1050C80055684FEA550EBCEB550F00D8F446B0F5BD
:1050D800004FEBD2D288EAE79BB10122B240B0F58B
:1050E800004F1AD3082101F1080002EBD002C1EBEE
:1050F800CC010191CDF800C0013A31463D481CF081
:1051080004FA0136BE420ADA331D54F82310002986
:10511800F7D00A4600239C46CBE70421E3E7B8F121
:10512800000F26D103AA02A920461CF061FEA3683D
:10513800DC00B3F5004F56D308231C440399631AC7
:10514800029A9B1A60084FF47A7505FB0300B0FBBE
:10515800F4F0294CA4FB0054E40804EB8405A0EB0C
:1051680045000190009425481CF0CFF904B0BDE833
:10517800F08123481CF0C9F9002518E073881EE067
:105188002A225B08B1F5004F29D32158691AE8187B
:105198000190009129461B481CF0B7F9A368AB425F
:1051A800C0D0B3F5004F1CD3736805EB5305E80076
:1051B80004EBC506A168B1F5004FDFD3736813F09F
:1051C800010FDDD1B1F5004F05D372685208012AED
:1051D80003D02D22D5E72D22D3E72E22D1E7215A5D
:1051E800D4E77388E1E70423A7E700BF8439040004
:1051F800B4390400703A0400CDCCCCCCCC3A0400CD
:105208008C3A04009C3A04002DE9F04383B004462C
:1052180008461546238B13F0080F05D103F007063F
:1052280000230093019355E0012909D043F020039E
:10523800238385F31188BFF36F8F03B0BDE8F08334
:1052480043F010032383F4E720461CF0B8FF43E043
:10525800D4F814904A46694620461CF0C9FF4FF01E
:105268000008238B03F00707B74269D0A268002A19
:1052780066D0012243F00803238385F31188BFF326
:105288006F8F002A64D1009B2BB14B463A46694682
:1052980020461DF026F8B8F1000F02D03449204608
:1052A800C0474FF02003EFF3118583F31288BFF353
:1052B8006F8F238B23F008032383238B13F0100FA6
:1052C8004CD023F0100323830120268B06F0070619
:1052D8000028AED00228B7D00028AAD00138042868
:1052E8002AD801A353F820F0595201004153010074
:1052F80005530100195301002D5301002369D3F808
:105308000080062120461CF030FF4FF00009A8E776
:105318002369D3F80480042120461CF026FF4FF0AF
:1053280000099EE72369D3F80880052120461CF070
:105338001CFF4FF0000994E74FF00008C14690E7C2
:10534800009A0AB1002295E7B8F1000F92D1B4E7AC
:105358004A46394620461CF010FF94E713F0200F08
:1053680004D023F0200323830220AEE70020ACE71B
:105378001923030084460268002006E000EB800041
:10538800013203EB4003A3F1300013780349C95CF1
:1053980011F0040FF2D1CCF800207047B5CE04000C
:1053A80084460846012226E09CF8003043F00403B6
:1053B8008CF80030F2B101301CE09CF8003043F06A
:1053C80008038CF80030F5E79CF8003043F0100330
:1053D8008CF80030EEE79CF8003043F020038CF89E
:1053E8000030E7E79CF8003043F040038CF80030C9
:1053F800E0E7002242B30378203B102BF9D801A143
:1054080051F823F0D1530100FB530100FB53010075
:10541800DF530100FB530100FB530100FB53010064
:10542800FB530100FB530100FB530100FB53010038
:10543800C3530100FB530100B1530100FB530100AA
:10544800FB530100ED5301009CF8003003F04403C6
:10545800442B00D070479CF800306FF386138CF80B
:105468000030F7E72DE9F84F05460C469346994674
:105478000A9FD078254B13F800A00AF0030A1DF004
:10548800F8F9064615E0BAF1010F20D0D2B257322A
:10549800D2B207F8012D3246434628462146FBF78B
:1054A80079FDB54274F1000415D34F4513D905466B
:1054B8000C464FF000083246434628462146FBF783
:1054C80069FD092ADFD8D2B23032D2B2E1E7D2B2CE
:1054D8003732D2B2DDE79BF8003013F0200F03D04B
:1054E800082E04D0102E09D03846BDE8F88F9BF856
:1054F800023043F008038BF80230F5E79BF80230DE
:1055080043F010038BF80230EEE700BFB5CE04007D
:105518002DE9F04F87B017461E46DDF84490024645
:105528000B1E07DB397811F0080F14D02B211098C7
:10553800017002E02D211098017097F80380C3F3E1
:105548000A54C3F31303049205935CB952EA0301A6
:1055580028D1002107E011F0100FEED0202110987B
:105568000170EAE7002140F2FF7084421CD0B8F1D4
:10557800460F5DD0DB0243EA5253D20204920593F0
:1055880023F000430593224343EAE4731A4307D008
:10559800002951D1A4F2FE34059B43F00043059342
:1055A80000256AE00121DEE7134324D19D4B13F85F
:1055B800083003F00303012B11D0692389F8003068
:1055C8006E2389F8013009F10302662389F8023055
:1055D8003B786FF386133B70129B1A6078E149237E
:1055E80089F800304E2389F8013009F10302462377
:1055F80089F80230ECE78B4B13F8083003F003030B
:10560800012B0AD06E2389F80030612289F8012025
:1056180009F1030289F80230DAE74E2389F80030ED
:10562800412289F8012009F1030289F80230CFE705
:105638004FF066089EE7013C049B059ADB1852412F
:1056480004930592002AF6DAA4E7059B049A520807
:1056580042EAC3725B080492059321460134B3F110
:10566800333FF2D29C0044EA92749000801843EBD6
:105678000403049005938C1C013D14F1020FE4DB34
:1056880014E0049B0233059A42F100020493059248
:1056980004A81DF0A8F8013C01350499059B491898
:1056A8005B4104910593013C002BF6DA002CE8DC01
:1056B800C4F10401059A1C34A1F12000049BCB40DD
:1056C80002FA04F4234322FA00F00343CA40049385
:1056D8000592B8F1670F14D0B8F1470F11D04FF009
:1056E800000BB8F1660F2AD006F1010A10230393C4
:1056F8009A4500DD9A4600224FF00063CDE9002369
:1057080029E015F1030F01DBB54211DDA8F102080C
:105718005FFA88F8002E00DD013E3B78C3F3401B9A
:1057280013F0200F08D1002EDBDD4FF0010BD8E776
:10573800761B4FF06608F0E74FF0000BD1E715EB4A
:10574800060AD3D5102303934FF0000AD3E768461F
:105758001DF065F8A2460AF1FF34BAF1000FF6D140
:10576800049B009A9B18059A019942EB0102049345
:1057780005924FF0FF3199426FF07043934106D381
:10578800B8F1660F38D1002D31DD4C460BE004A886
:105798001DF045F80135F3E703A904A81DF04BF8FF
:1057A80004F8010B013D002D02DD039B002BF3DC07
:1057B8007D6055463B7813F0200F01D1002E02DDA5
:1057C8002E2304F8013B002D35DA002E33DD6B4221
:1057D8007B609E4200DA7E607B68F61A002BD4BF9D
:1057E80000230123BA7863F34512BA7023E04C46CC
:1057F800302304F8013BDDE703A904A81DF01BF8DA
:105808004C4604F8010B302800D0013D3B7813F0DA
:10581800200F01D1002E0EDD09F102042E2389F894
:10582800013008E0B5CE040003A904A81DF003F870
:1058380004F8010B013E002E02DD039B002BF3DC74
:10584800BE60BBF1000F09D00023BB6023461C4695
:1058580013F8012D302AFAD02E2A3DD0B8F1650F61
:1058680002D0B8F1450F26D184F80080002D35DB31
:10587800A21C2B236370632D0CDD1E4981FB0531AF
:10588800EB17C3EB611303F1300102F8011B64212C
:1058980001FB1355184981FB0531EB17C3EBA10335
:1058A80003F13001144604F8021B03EB8303A5EB54
:1058B8004303303353707B68002B14DD4FF0010A2B
:1058C800BB786AF38613BB70129B1C60002323709D
:1058D800484607B0BDE8F08F1C46BFE76D42A21CE2
:1058E8002D236370C7E7BB68002BE9DD4FF0010A81
:1058F800E6E700BF1F85EB51676666662DE9F04F46
:1059080097B006460D4690460593002498F8000087
:10591800002800F04783252808D008F10108294607
:10592800B0470028C0F23F830134EFE70023089313
:1059380009930A930B930C930D930DF1550207925B
:105948008DF81B3041460AA81CF02BFF81469DF8B4
:10595800293013F0010F00F09E80059B1A1D059257
:105968001F68002FC0F28F809DF8293013F0040FB4
:1059780000F0A380059B1A1D0592D3F800A0BAF188
:10598800000FC0F2918000230B930C939DF82A30EE
:1059980003F00703042B00F099809DF82A3003F0E8
:1059A80007039DF82910C1F3C301012B00F09E8065
:1059B800022B00F0E380042B00F03481032B00F06D
:1059C8004B819DF8282012F0030F40F04B819DF881
:1059D8002B30253B532B00F2FC81DFE813F04F01FD
:1059E800FA01FA01FA01FA01FA01FA01FA01FA01D7
:1059F800FA01FA01FA01FA01FA01FA01FA01FA01C7
:105A0800FA01FA01FA01FA01FA01FA01FA01FA01B6
:105A1800FA01FA01FA01FC01FA01FA01FA01FC01A2
:105A2800FC01FC01FA01FA01FA01FA01FA01FA0192
:105A3800FA01FA01FA01FA01FA01FA01FA01FA0186
:105A4800FA01FA01B101FA01FA01FA01FA01FA01BF
:105A5800FA01FA01FA01FC01FA019C01A501FC0115
:105A6800FC01FC01FA01A501FA01FA01FA01FA01A7
:105A7800F501B101DC01FA01FA015701FA01B1019E
:105A8800FA01FA01B1019DF8283043F004038DF8BA
:105A980028307F4268E79DF92830002B02DB4FF061
:105AA800FF3761E70B9F5FE79DF829306FF34103EC
:105AB8008DF829304FF0FF3A65E713F0020F02D056
:105AC800DDF830A05FE74FF0FF3A5CE79DF829303A
