:10000000F80B0020B90D0000AD0E00009357000062
:10001000A7570000BB570000E3570000CF57000070
:10002000000000000000000000000000B5220000F9
:10003000AD0E00000000000061220000AD0E0000C7
:10004000000000000000000000000000AB2A0000DB
:1000500000000000AD0E00000000000000000000E5
:10006000AD0E0000AD0E0000AD0E0000AD0E0000A4
:1000700000000000AD0E0000AD0E0000AD0E00004F
:10008000AD0E0000AD0E00000000000000000000FA
:10009000AD0E0000AD0E00000000000000000000EA
:1000A000AD0E00000000000000000000AD0E0000DA
:1000B000AD0E0000AD0E0000AD0E0000AD0E000054
:1000C000AD0E0000AD0E0000AD0E0000AD0E000044
:1000D000AD0E000000000000AD0E000000000000AA
:1000E000AD0E000000000000AD0E0000000000009A
:1000F000AD0E000000000000000000000000000045
:1001000000000000AD0E0000000000000000000034
:1001100000000000000000000000000000000000DF
:1001200000000000AD0E0000000000000000000014
:1001300000000000000000000000000000000000BF
:04014000AD0E000000
:1001440040FC0000202E002043000000E055000089
:10015400401C002000000000E0550000201C00208E
:040164000000000097
:10016800402F0020A2060000401C00207804000058
:10017800201C002008000000001C002008000000CF
:1001880000015F5F00000000FE0F000095230000E3
:100198000004000000000000000000000000000053
:1001A8000000000000000000603000200000000097
:1001B80001015F5F030100001F010000D505000079
:1001C800000800000000000001000000010000001D
:1001D800000000000000000088200020000000004F
:1001E800700000009C9B000080000000000F0000D1
:1001F80001000000050600000100000001015F5F2A
:10020800040100001F010000250B0000000500008C
:1002180000000000000000000100000000000000D5
:10022800000000008828002000000000A89B0000B3
:10023800400000000507000001000000E90A000076
:0402480001000000B1
:1002600080B483B000AF7860044A7B68C2F804347D
:10027000002318460C37BD4680BC7047401C002048
:1002800080B483B000AF7860054BD3F804247B685A
:100290001A60002318460C37BD4680BC704700BF6B
:1002A000401C002080B483B000AF786039607B6868
:1002B000033323F003037B600F4BD3F80034C3F503
:1002C00080637A689A4202D96FF08C030FE00A4B80
:1002D000D3F80034084A1A443B681A60064BD3F836
:1002E00000247B681344044AC2F8003400231846F3
:1002F0000C37BD4680BC7047401C002080B500AF65
:10030000084B0022C3F80424064BD3F800341A46E5
:100310000021044805F099FA024B0022C3F800249A
:1003200000BF80BD401C002080B582B000AF786067
:100330007868FFF795FF00BF0837BD4680BD80B5E0
:1003400082B000AF78607868FFF79AFF03461846DE
:100350000837BD4680BDB0B588B000AFF860B96061
:100360007A603B6000237B610123FB6130E0FA6827
:10037000FB6902339B0013445B6807F114021146CA
:100380001846FFF78FFFB861BB69002B03D0FFF75A
:10039000B5FFBB6950E0FB6858687969FA68FB698A
:1003A00002339B0013445D68FB69DB00BA68D41814
:1003B0002B460A46F96905F0EFFA03466360FB69CC
:1003C000DB00BA6813447A691A60FB690133FB6188
:1003D000FA697B689A42CAD30023FB6127E0FA6876
:1003E000FB6906339B0013445B6807F11402114656
:1003F0001846FFF757FFB861BB69002B03D0FFF722
:100400007DFFBB6918E0FB69DB003A6813447A6939
:100410001A60FB69DB003A681A44F968FB69063325
:100420009B000B445B685360FB690133FB61FA6915
:100430003B6B9A42D3D3002318462037BD46B0BD4C
:1004400080B5A4B002AF78600023BB670423C7F86F
:1004500084300423C7F8803007F15803202200219C
:10046000184605F0F2F907F138032022002118465A
:1004700005F0EBF907F1080330220021184605F0DA
:10048000E4F904E0D7F88430013BC7F88430D7F8AA
:100490008430002B0FD0D7F88430013B7A680233C8
:1004A0009B0013445B68002BECD004E0D7F880304D
:1004B000013BC7F88030D7F88030002B09D0D7F83F
:1004C0008030013B7A6806339B0013445B68002B45
:1004D000ECD0D7F88430002B02D16FF0830354E0C6
:1004E0007B68586807F108023023002105F054FAB0
:1004F0000346302B02D06FF0830346E007F1080378
:10050000BB653023FB6507F1380207F15801D7F8C6
:10051000803000931346D7F884207868FFF71BFFDC
:10052000B867BB6F002B01D0BB6F2EE07B689B6868
:100530001846FFF7F9FE07F1380207F15800D7F81F
:100540008030D7F8841000F071F8B8670023FB679B
:1005500013E07B685868FB6FDB0088333B4453F83B
:10056000502CFB6FDB0088333B4453F84C3CF96F55
:1005700005F02AFAFB6F0133FB67FA6FD7F880307A
:100580009A42E6D3FFF7BAFEBB6F18468837BD46DE
:1005900080BD80B582B000AF6FF083037B60002325
:1005A0003B6000F095F9386000F0A0F978607B6856
:1005B000002B01D07B6802E005F008FC03461846DA
:1005C0000837BD4680BD80B500AF00F0D9F80346BE
:1005D000184680BD80B582B000AFFFF7F4FF7860A9
:1005E0007B68002B01D07B6808E0FFF7D2FF7860C2
:1005F0007B68002B01D07B6800E000231846083799
:10060000BD4680BD80B582B000AF78607B681B6856
:10061000002B04D17868FFF713FF034601E06FF069
:10062000850318460837BD4680BD000080B58AB0F6
:1006300000AFF860B9607A603B606FF096037B6250
:10064000FB681B683B620023BB6100233B61002306
:100650007B610023FB77FB685B68302B02D06FF077
:10066000800388E03B6A9B8DBB77BB7F022B04D065
:10067000BB7F002B01D0012300E00023FB77FB7F31
:1006800003F00103FB77FB7F002B0FD007F118036A
:100690001846FFF754FE78627B6A002B01D07B6A14
:1006A00069E03B6A1B683B61BB697B61BB7F082BD0
:1006B0005FD801A252F823F067070000DD060000B2
:1006C000EF060000FB0600000D0700001F070000FA
:1006D00031070000430700005507000007F1100331
:1006E0001A467968F86800F0B1F8034643E0796883
:1006F000F86800F05EF803463DE007F110031A4683
:100700007968F86800F061F8034634E007F11003F7
:100710001A467968F86800F03FF803462BE007F1C5
:1007200010031A467968F86800F05CF8034622E086
:1007300007F110031A467968F86800F060F803467C
:1007400019E007F110031A467968F86800F064F8B8
:10075000034610E007F110031A467968F86800F0C4
:1007600068F8034607E07968F86800F07CF803460B
:1007700001E06FF0850318462837BD4680BD00BFF5
:1007800080B500AF28220021024805F05EF8002362
:10079000184680BD4820002080B485B000AFF860C6
:1007A000B9607A606FF0850318461437BD4680BC87
:1007B000704780B483B000AF786039606FF0850314
:1007C00018460C37BD4680BC704780B485B000AF7A
:1007D000F860B9607A606FF0850318461437BD463B
:1007E00080BC704780B485B000AFF860B9607A60B3
:1007F0006FF0850318461437BD4680BC704780B43F
:1008000085B000AFF860B9607A606FF08503184674
:100810001437BD4680BC704780B485B000AFF86027
:10082000B9607A606FF0850318461437BD4680BC06
:10083000704780B485B000AFF860B9607A606FF03F
:10084000850318461437BD4680BC704780B485B018
:1008500000AFF860B9607A606FF08503184614370E
:10086000BD4680BC704780B584B000AF7860396009
:100870003B681B68FB603B685B68BB60B968F868F5
:1008800005F094FA034618461037BD4680BD80B483
:1008900087B000AFF860B9607A60FB687A681A6068
:1008A000FB68BA685A60F8681C37BD4680BC704760
:1008B00080B584B000AFF860B9607A60FB687A6890
:1008C000B9681846FFF7E3FFF8681037BD4680BDEA
:1008D00080B500AF0F220349034805F0DFFA024B51
:1008E000184680BD900D00007020002080B500AF3C
:1008F0000121034805F0F6F90023184680BD00BF2A
:100900008420002080B500AF01F092FA0023184641
:1009100080BD80B582B000AF7860FFF7F3FF03467B
:1009200018460837BD4680BD80B5AEB000AF7860D0
:100930000023C7F8B4300023C7F8B03007F19403A0
:1009400000221A605A6007F18C0300221A605A6074
:100950000023FB6407F150033C220021184604F0F9
:1009600074FF0023FB6007F110033C2200211846AE
:1009700004F06BFF0023BB600123C7F8A430002301
:10098000C7F8A0300423C7F8AC300423C7F8A83058
:1009900004E0D7F8AC30013BC7F8AC30D7F8AC3046
:1009A000002B0FD0D7F8AC30013B7A6802339B00A4
:1009B00013445B68002BECD004E0D7F8A830013B6F
:1009C000C7F8A830D7F8A830002B09D0D7F8A8303E
:1009D000013B7A6806339B0013445B68002BECD024
:1009E000D7F8AC30002B07D0D7F8AC30022B03D8A7
:1009F000D7F8A830012B01D9012371E07B68586832
:100A000007F108020423002104F0C6FF0346C7F8DB
:100A1000A030D7F8A030042B02D06FF080035FE045
:100A2000D7F8AC30012B2BD97B681B69C7F89C30F9
:100A3000D7F89C30402B02D96FF0890350E07B68D7
:100A400058687B681B6907F14C02012104F0A4FF80
:100A50000346C7F8A030D7F8A030D7F89C209A42B8
:100A600002D06FF080033BE007F14C03C7F89430ED
:100A7000D7F89C30C7F8983007F19403C7F8B43022
:100A8000D7F8A830002B12D07B68DB69402B02D945
:100A90006FF0800324E007F10C03C7F88C307B680B
:100AA000DB69C7F8903007F18C03C7F8B030BB683A
:100AB000D7F8B020D7F8B410184601F0BDF9C7F840
:100AC000A400D7F8B030002B08D07B685868D7F85E
:100AD0008C20D7F89030002104F076FFD7F8A430AE
:100AE0001846B837BD4680BD80B582B000AF78608B
:100AF0007B681B68B3F57D7F04D040F2F5329342EA
:100B000005D009E07868FFF704FF034606E078683F
:100B1000FFF70AFF034601E06FF085031846083728
:100B2000BD4680BD80B400AF00231846BD4680BCE2
:100B3000704780B487B000AFF8603B1D83E80600C3
:100B4000FB685B687B61FB6808333A1D92E8030031
:100B500083E803007B69DBB2002B06D17B6923F0BD
:100B6000FF0343F00102FB685A6000BF1C37BD461B
:100B700080BC704780B483B000AF786039607B6818
:100B80003A685A603B68DBB2002B02D17B680022D6
:100B90009A6000BF0C37BD4680BC704780B483B0FC
:100BA00000AF786039607B683A685A6100BF0C37E3
:100BB000BD4680BC704780B483B000AF78600B4600
:100BC0007B807B687A881A8000BF0C37BD4680BC6A
:100BD000704780B483B000AF786039603B684FF6EF
:100BE000F872934204D97B684FF6FF725A8003E093
:100BF0003B689AB27B685A8000BF0C37BD4680BC08
:100C00007047000090B5A3B002AF6FF09603FB678A
:100C100000233B6607F16003184604F009FF78677C
:100C20000023BB67A3E0396EBA6F13465B00134421
:100C3000DB000B441B69544A934240F09480396EA8
:100C4000BA6F13465B001344DB000B44D3E9022365
:100C5000C7E91A23396EBA6F13465B001344DB00F1
:100C60000B441A6807F1280300211846FFF720FEFD
:100C70003B4620220021184604F0E7FD396EBA6F8A
:100C800013465B001344DB000B445C6907F1380139
:100C900007F13C0207F1400007F13203019307F12D
:100CA000340300930B462021A04778667B6E002B0F
:100CB00003D06FF09203FB6760E0384607F128032A
:100CC00093E80600FFF735FFBA6B3B46114618461E
:100CD000FFF77FFF7A6B3B4611461846FFF75EFF32
:100CE0007A8E3B4611461846FFF765FF396EBA6F9C
:100CF00013465B001344DB000B441A693B46114664
:100D00001846FFF737FFBA6E1346DB001344DB00CB
:100D100020331E4A1344043339462022184605F076
:100D2000BDF8BA6E1346DB001344DB00174A1344C8
:100D3000FA6B07F14001184605F0B0F8F96B13485B
:100D4000BA6E1346DB001344DB0003442033196002
:100D50000E49BA6E1346DB001344DB000B444433E8
:100D600001221A6000E000BFBB6F0133BB67BA6F9E
:100D70007B6F9A42FFF457AF0023FB67FB6F184667
:100D80008437BD4690BD00BF01010080882D002042
:100D90006D62656420544C5320332E332E30000096
:080DA0006049000001000000A1
:100DA80080B500AF01F0E4F800BF80BD000000008E
:100DB80080B588B000AF72B600BF314B314A9A6037
:100DC800314B3B603B6883F3098800BF2F4B7B6046
:100DD8007B6883F30A8800BF2C4BBB60BB6883F336
:100DE8000B8800BF2A4BFB60F96823A3D3E90023D3
:100DF800C1E9002300BF00F0B9F9264BFB6119E0F7
:100E08000023BB610EE0FB691A68BB699B001A44AA
:100E1800FB695968BB699B000B4412681A60BB697F
:100E28000133BB61FB699B68BA699A42EBD3FB69E2
:100E38000C33FB61FB69184A9342E1D3174B7B6182
:100E480014E000233B6109E07B691A683B699B0059
:100E5800134400221A603B6901333B617B695B687C
:100E68003A699A42F0D37B6908337B617B690C4A03
:100E78009342E6D304F044FCA5EDF5FEA5EDF5FE9E
:100E880000ED00E000000000F80B00200004002046
:100E9800F80B002044010000680100006801000010
:100EA80088010000FFF77CFFFEE700BF80B400AFB9
:100EB800BFF34F8F00BF064BDB6803F4E0620449C1
:100EC800044B1343CB60BFF34F8F00BF00BFFDE758
:100ED80000ED00E00400FA0580B483B000AF104BC9
:100EE8001B68C3F30B037B600E4B1B683B60BFF3AF
:100EF8004F8F00BF7B68092B0CD13B68012B03D0B7
:100F08003B68022B02D003E0012304E0012302E046
:100F1800012300E0002318460C37BD4680BC70470B
:100F28003001FF003401FF0080B483B000AF104BE4
:100F38001B68C3F30B037B600E4B1B683B60BFF35E
:100F48004F8F00BF7B68092B0CD13B68012B03D066
:100F58003B68022B02D003E0012304E0012302E0F6
:100F6800012300E0002318460C37BD4680BC7047BB
:100F78003001FF003401FF0080B483B000AF104B94
:100F88001B68C3F30B037B600E4B1B683B60BFF30E
:100F98004F8F00BF7B68092B0CD13B68012B03D016
:100FA8003B68022B02D003E0012304E0002302E0A7
:100FB800002300E0002318460C37BD4680BC70476C
:100FC8003001FF003401FF0080B483B000AF104B44
:100FD8001B68C3F30B037B600E4B1B683B60BFF3BE
:100FE8004F8F00BF7B68092B0CD13B68012B03D0C6
:100FF8003B68022B02D003E0002304E0012302E057
:10100800012300E0002318460C37BD4680BC70471A
:101018003001FF003401FF0080B483B000AF104BF3
:101028001B68C3F30B037B600E4B1B683B60BFF36D
:101038004F8F00BF7B68092B0CD13B68012B03D075
:101048003B68022B02D003E0012304E0002302E006
:10105800002300E0002318460C37BD4680BC7047CB
:101068003001FF003401FF0080B483B000AF104BA3
:101078001B68C3F30B037B600E4B1B683B60BFF31D
:101088004F8F00BF7B68092B0CD13B68012B03D025
:101098003B68022B02D003E0012304E0012302E0B5
:1010A800012300E0002318460C37BD4680BC70477A
:1010B8003001FF003401FF0080B483B000AF144B4F
:1010C8001B68C3F30B037B60124B1B683B60BFF3C9
:1010D8004F8F00BF7B68092B14D13B68032B0DD0C1
:1010E8003B68032B0CD83B68012B03D03B68022BD1
:1010F80002D005E0002306E0002304E0012302E01B
:10110800012300E0002318460C37BD4680BC704719
:101118003001FF003401FF0080B500AFFFF7CCFFBE
:10112800034683F00103DBB2002B16D10C4B1B687E
:101138000C4A934201D15A2300E000230A4AC2F81C
:10114800103E074BDB6A074A934201D15A2300E05D
:101158000023054AC2F8003E00E000BF80BD00BF82
:101168000080FF00FA50FA500090035080B586B016
:1011780000AF784B1B68774A43F002031360FFF710
:10118800ABFE0346002B09D04FF050230022C3F8D2
:1011980014214FF050230022C3F81821FFF7ECFE6A
:1011A8000346002B06D06C4B01221A606B4B0122C0
:1011B800C3F87825FFF708FF0346002B03D0674BD9
:1011C8000122C3F87825FFF727FF0346002B02D03A
:1011D800634B0E221A60FFF747FF0346002B05D02A
:1011E800604B00221A60604B01221A6000237B6169
:1011F80011E04FF47F024FF47F017B69603351F8AF
:10120800333019467B696033DB0013445B680B603D
:101218007B6901337B617B69FF2B0ED87B69DB001F
:1012280003F57F0303F54073184600F013F90346EE
:1012380083F00103DBB2002BDBD1EFF310837B607B
:101248007B68012B0CBF01230023FB7400F0C6F858
:101258000346002B04D100F08FF80346002B6AD018
:10126800BFF34F8F00BF00BF404BD3F80034012BB2
:10127800FAD13E4B0122C3F8042500BF3B4BD3F8FB
:101288000034012BFAD1FB7C83F00103DBB2002B85
:1012980006D0FFF749FE0346002B01D072B600BF07
:1012A80000F09CF80346002B12D0314BDB69FB6041
:1012B800FB6823F00103BB602D4ABB68D361BFF311
:1012C8004F8F00BF00BF294BD3F80034012BFAD150
:1012D80000F052F80346002B14D0254B1B6AFB6024
:1012E800FB6823F0FF0343F02003BB60204ABB6880
:1012F8001362BFF34F8F00BF00BF1C4BD3F80034FD
:10130800012BFAD1FB7C83F00103DBB2002B06D062
:10131800FFF70AFE0346002B01D062B600BF134B4D
:101328000022C3F8042500BF104BD3F80034012B6A
:10133800FAD1FFF7BBFD0F4BD3F88C300D4A43F4BD
:101348004063C2F88C30FFF7E7FE00BF1837BD4690
:1013580080BD00BFD0ED00E0384A0050004000508A
:10136800E4AE03500C470050104700500090035063
:101378000080FF0000ED00E080B582B000AFEFF321
:1013880010833B603B68012B0CBF01230023FB71DA
:10139800FB7983F00103DBB2002B06D0FFF7C4FD15
:1013A8000346002B01D072B600BF0B4800F052F87C
:1013B8000346BB71FB7983F00103DBB2002B06D037
:1013C800FFF7B2FD0346002B01D062B600BFBB7920
:1013D80018460837BD4680BD2080FF0080B584B020
:1013E80000AFEFF310833B603B68012B0CBF012378
:1013F8000023FB73FB7B83F00103DBB2002B06D0D9
:10140800FFF792FD0346002B01D072B600BF104BC8
:10141800DB69BB60BFF34F8F00BFBB6803F00103FC
:10142800002B14BF01230023FB71FB7B83F0010316
:10143800DBB2002B06D0FFF777FD0346002B01D067
:1014480062B600BFFB7918461037BD4680BD00BFA5
:101458000080FF0080B485B000AF78607B681B68AF
:10146800FB60BFF34F8F00BFFB68B3F1FF3F0CBFBA
:1014780001230023DBB218461437BD4680BC7047F1
:1014880080B400AF72B600BF044B1B680133034A37
:10149800136000BFBD4680BC704700BFE83E002017
:1014A80080B500AF0B4B1B68002B05D10A4B0B4ACC
:1014B8002C210B4807F0DAFA064B1B68013B054A5A
:1014C8001360044B1B68002B01D162B600BF00BF3C
:1014D80080BD00BFE83E0020A84F00002C5000004F
:1014E800C04F000080B487B000AFF860B9607A6080
:1014F800FB681B687B617B69114A1A63BB68002B18
:1015080001D0042200E000227B68002B01D00223D6
:1015180000E000231A437B695A607B695B6843F0EB
:1015280001027B695A60BFF34F8F00BFBFF36F8F13
:1015380000BF002318461C37BD4680BC704700BF5B
:1015480004AAFF0080B489B000AF786039607B6876
:101558001B68FB610023FB763B685B6803F01F0395
:10156800002B01D0012354E0FB691B681B0ADBB286
:101578007B613B681B687A699A4201D8012348E07D
:10158800FB695B683B61FB6900225A603B681B682A
:10159800DAB2FB699A603B685B6823F01F03FB6063
:1015A8003B689B7CDB0003F01803FA681343FB607D
:1015B8003B685B7C5B0003F00603FA681343FB603F
:1015C8003B681B7C03F00103FA681343FB60FB696B
:1015D800FA68DA603B689B68013B23F01F03BB6035
:1015E8003B68DB685B0003F00E03BA681343BB601B
:1015F800BB6843F00103BB60FB69BA681A61FB6909
:101608003A695A60BFF34F8F00BFBFF36F8F00BFB7
:10161800FB7E18462437BD4680BC704780B487B02F
:1016280000AF786039607B681B687B610023FB74BE
:101638007B695B68FB607B6900225A603B68DAB2B1
:101648007B699A607B690022DA607B6900221A61F3
:101658007B69FA685A60FB7C18461C37BD4680BC1B
:10166800704780B586B000AF78607B681B683B61C7
:101678003B691B681B0ADBB2FB6000237B6106E049
:1016880079697868FFF7CAFF7B6901337B617A69FA
:10169800FB689A42F4D3002318461837BD4680BD2C
:1016A80080B483B000AF78607B681B6800BF0C37DC
:1016B800BD4680BC704780B582B000AF78600B46ED
:1016C8007B807B887A68134400221A607B887A685A
:1016D80013441846FFF7E4FF00BF0837BD4680BD36
:1016E80080B483B000AF786039607B683A68C3F82B
:1016F800042300BF0C37BD4680BC704780B582B05C
:1017080000AF7860084611461A460346FB700B4640
:10171800BB7013467B70FA787B68A03253F832307E
:1017280003F48073002B06D01C4B1D4A40F25B313A
:101738001C4807F09BF9FB787A68A033DB00134458
:101748005B6803F48073002B06D0174B144A4FF4E0
:101758005771144807F08AF97B783A7C002A02D03E
:101768004FF4807100E00021FA7819437B68A032B9
:1017780043F83210BA783B7C002B02D04FF48071CA
:1017880000E00021FB780A437968A033DB000B44B2
:101798005A6000BF0837BD4680BD00BF48500000F2
:1017A8000454000084500000B850000080B584B094
:1017B80000AFF8607B600B46FB721346BB72FA7A87
:1017C800FB6802F5C07253F8223003F48073002BD3
:1017D80006D0104B104A40F27931104807F046F90C
:1017E800BB7A002B01D0102200E000227B68134353
:1017F8003A7E002A02D04FF4807100E00021FA7A84
:101808001943FB6802F5C07243F8221000BF103775
:10181800BD4680BDF4500000A45300008450000071
:1018280080B584B000AFF8607B600B46FB7213464E
:10183800BB72FA7AFB6802F5E07253F8223003F4BF
:101848008073002B06D0104B104A40F286311048A6
:1018580007F00CF9BB7A002B01D0102200E000221F
:101868007B6813433A7E002A02D04FF4807100E06F
:101878000021FA7A1943FB6802F5E07243F8221056
:1018880000BF1037BD4680BD30510000BC5300007A
:101898008450000080B584B000AFF860B96011468C
:1018A8001A460B46FB711346BB71FB68BA6802F512
:1018B800007253F82230002B06DB1C4B1C4A40F206
:1018C80093311C4807F0D2F8FB68BA6802F5007239
:1018D80053F8223003F48073002B06D0164B144AB9
:1018E8004FF46571134807F0C1F8FB79002B01D05C
:1018F800102200E00022BB79002B01D0202300E059
:10190800002313433A7E002A02D04FF4807200E08D
:10191800002242EA0301FB68BA6802F5007243F844
:10192800221000BF1037BD4680BD00BF68510000BF
:101938003C54000084500000A051000080B500AF66
:1019480007210248FFF7CCFE00BF80BD00300050E1
:1019580080B500AF4FF480710748FFF7ACFE4FF435
:1019680082710548FFF7A7FE4FF484710248FFF71C
:10197800A2FE00BF80BD00BF0030005080B485B01B
:1019880000AF78600B46FB700023FB73FB7B1846A7
:101998001437BD4680BC704780B485B000AF78600E
:1019A8000B46FB700023FB73FB7B18461437BD46C0
:1019B80080BC704780B584B002AF00237B6017E01D
:1019C8007B68DBB219461D48FFF7D8FF034683F052
:1019D8000103DBB2002B08D07B68D9B20023009347
:1019E800072301221548FFF7E1FE7B6801337B607E
:1019F8007B681F2BE4D900233B6017E03B68DBB210
:101A080019460E48FFF7C8FF034683F00103DBB20F
:101A1800002B08D03B68D9B200230093072301228A
:101A28000648FFF7FDFE3B6801333B603B681F2B10
:101A3800E4D900BF00BF0837BD4680BD0030005064
:101A480080B58AB002AFF860B9603B601346FB719D
:101A5800FB68DB0BBB61BB68DB0B7B61BB69FB61B4
:101A68000CE0FB69D9B2FA7997F8283000933B6803
:101A78000748FFF79BFEFB690133FB61FA697B6945
:101A88009A42EED900BF00BF2037BD4680BD00BFD7
:101A98000030005080B58AB002AFF860B9603B6092
:101AA8001346FB71FB6803F160435B0BBB61BB68CA
:101AB80003F160435B0B7B61BB69FB610CE0FB6975
:101AC800D9B2FA7997F8283000933B680748FFF7AE
:101AD800A7FEFB690133FB61FA697B699A42EED97B
:101AE80000BF00BF2037BD4680BD00BF003000509A
:101AF80080B586B002AF786039603A687B68D31ADF
:101B08000133FB607B68C3F30E03C3F50043BB607E
:101B1800FA68BB689A4205D91F4B204ABF21204862
:101B280006F0A4FF7A68BB681344C3F30E03002BC6
:101B380005D01C4B194AC221194806F097FFBB680B
:101B48005A1EBB681340002B05D0174B134AC621F9
:101B5800134806F08BFFBB681F2B03D9BB68B3F58E
:101B6800805F05D9114B0D4AC9210D4806F07EFF4B
:101B7800BB68B3FA83F3DBB2C3F11B03DAB27B6849
:101B8800DB0BDBB20121009100210948FFF7B6FD0C
:101B980000BF1037BD4680BDDC510000D4530000A3
:101BA800F05100006452000090520000B45200004E
:101BB8000030005080B483B000AF78607B68DB03EE
:101BC80018460C37BD4680BC704780B483B000AF60
:101BD80078607B680133DB03013B18460C37BD4650
:101BE80080BC704780B400AF00231846BD4680BC57
:101BF800704780B400AF1F231846BD4680BC7047AD
:101C080080B400AF4FF400431846BD4680BC70470F
:101C180080B483B000AF78607B6803F57F43C0333E
:101C28005B0318460C37BD4680BC704780B483B050
:101C380000AF78607B6803F57F43C1335B03013BEA
:101C480018460C37BD4680BC704780B400AF4023AF
:101C58001846BD4680BC704780B400AF5F23184665
:101C6800BD4680BC704780B400AF4FF4005318469F
:101C7800BD4680BC7047000080B586B002AF786072
:101C88000B46FB707B681B0BFB730E4AFB7B03F553
:101C9800007352F8233003F00303002B06D10A4BDC
:101CA8000A4A40F213110A4806F0E0FEF97BFB7875
:101CB8000093012301220348FFF7ECFD00BF103712
:101CC800BD4680BD00300050DC5200001C540000AE
:101CD800F051000080B586B002AF78600B46FB700B
:101CE8007B681B0BFB730E4AFB7B03F5007352F8F2
:101CF800233003F00303012B06D10A4B0A4A4FF4A1
:101D080092710A4806F0B2FEF97BFB780093002333
:101D180000220348FFF7BEFD00BF1037BD4680BD57
:101D2800003000504053000054540000F0510000AF
:101D380080B582B000AF04F05BF978607B68002B57
:101D480002D045F2235300E0002318460837BD4669
:101D580080BD000080B483B000AF0C4BDB687B60B3
:101D68007B689BB27B607B6823F008037B607B68A1
:101D780043F0BF6343F400337B60044A7B68D3605D
:101D880000BF0C37BD4680BC704700BF00ED00E0C7
:101D980080B582B000AF02F04BFD78607B68002B05
:101DA80001D07B680AE0FFF7C3FF78607B68002BEF
:101DB80001D07B6802E0FFF7CDFF00231846083703
:101DC800BD4680BD80B400AF00231846BD4680BC28
:101DD800704780B400AF00231846BD4680BC7047EA
:101DE80080B400AF00231846BD4680BC704780B45D
:101DF80000AF00BFBD4680BC7047000080B400AF94
:101E0800BFF34F8F00BF064BDB6803F4E062044961
:101E1800044B1343CB60BFF34F8F00BF00BFFDE7F8
:101E280000ED00E00400FA0580B500AFFFF7E6FF1B
:101E380080B584B000AFF860B9607A60FB68002BA9
:101E480005D17968B86800F021F8034600E003235B
:101E580018461037BD4680BD80B400AFBFF34F8F22
:101E680000BF064BDB6803F4E0620449044B1343EC
:101E7800CB60BFF34F8F00BF00BFFDE700ED00E070
:101E88000400FA0580B500AFFFF7E6FF80B58CB017
:101E980000AF7860396001237B6206233B627B6870
:101EA8005B680C2B03D13B685B68042B01D00223D1
:101EB80058E07B681B68FB613B681B68BB61BB69BA
:101EC8004FF0FF321A600223FB62FB691B68002B8C
:101ED80003D0FB699B68002B01D1022342E0FB6918
:101EE8001B681946FB699A683B6A786A00F028FC07
:101EF80078617B69002B01D0022333E00023BB62A9
:101F08002CE01A4ABB6A52F833303B61174ABB6A65
:101F1800DB0013445B68FB60FB695B683A699A42C3
:101F280019D8FB695A68FB699B681A443969FB68C8
:101F38000B449A420FD8FB691868FB695B6819461D
:101F4800FB699B681A4603F0A5FFBB6900221A606B
:101F58000023FB6205E0BB6A0133BB62BB6A022B4C
:101F6800CFD9FB6A18463037BD4680BD785400008B
:101F780080B500AFFFF786FF00BF80BD80B485B095
:101F880000AF78607B68FB60FB6883F30A8800BF5A
:101F980000BF1437BD4680BC7047000080B582B0D2
:101FA80000AF43F65C237B604FF0FF333B6018487B
:101FB80000F004FA38603B68002B01D01F2323E0AF
:101FC800FFF7E6FE38603B68002B01D01F231BE0BB
:101FD800FFF7F8FE78607B68002B01D01F2313E021
:101FE800FFF7F7FE0346002B07D0FFF7F9FE7860EE
:101FF8007B68002B03D01F2306E0FFF7F8FE00F0F4
:10200800BFF901F095F8002318460837BD4680BD92
:102018006034002080B582B000AF4FF0FF337B60A2
:102028000A4B1846FFF7AAFFFFF7B8FF78607B68EE
:10203800002B01D0FFF79CFF00F06EF900F0AAF822
:10204800002318460837BD4680BD00BF00040020A5
:1020580080B483B000AF78607B689B0903F001030C
:10206800002B14BF01230023DBB218460C37BD46F2
:1020780080BC704780B483B000AF78607B685B0930
:1020880003F00103002B14BF01230023DBB2184621
:102098000C37BD4680BC704780B400AF064BD3E90F
:1020A8000023064805498B4208BF824200D0FEE75C
:1020B80000BFBD4680BC7047F80B0020A5EDF5FEBB
:1020C80080B586B000AFF860B9607A600023FB7510
:1020D800FB683B61BB6803F00803002B06D0BB68B4
:1020E80003F00403002B01D07B683B61B868FFF75D
:1020F800AFFF0346002B12D0B868FFF7BBFF0346BB
:1021080083F00103DBB2002B02D03B6928333B612B
:102118003B6918331B68023B1B78FB7501E0FFF72E
:1021280027FFBB6803F00803002B0CBF0123002323
:10213800DAB297F91730DBB2DB09DBB25340DBB216
:10214800002B01D0FFF714FFFB7D402B0CD0412B57
:102158000ED101F04BFBB860FFF79EFF0C4BB9683E
:10216800184601F073F80DE0386900F0EDFF09E05A
:102178003B696FF083021A603B691B68184601F0DF
:10218800F6FD00BFBB6818461837BD4680BD00BFC6
:10219800F80B002041DF704700BF000080B483B017
:1021A80000AF03463960FB7197F90730002B0ADB53
:1021B8003B68DAB20C4997F907305201D2B20B44A6
:1021C80083F800230AE03B68DAB20849FB7903F098
:1021D8000F03043B5201D2B20B441A7600BF0C37EE
:1021E800BD4680BC704700BF00E100E000ED00E0A4
:1021F80070B572B6BFF36F8F1446EFF30B855FF0BF
:10220800000C002A1FBF8CF30B886C46954683F39D
:102218000B88104A0123136062B6BFF36F8F0E4616
:1022280001F066FB72B6BFF36F8F314601F08AFB8F
:102238005FF0000C002C1EBF8CF30B88A54685F3BD
:102248000B88044C0025256062B6BFF36F8F70BD04
:1022580000BF000064340020402010EA0E0023D0A4
:1022680001B502F0C3F8BDE8044088421CD072B63C
:10227800BFF36F8FEFF309821EF020031CBF22E922
:10228800F00F083A80E80440B1E804401EF020034B
:102298001CBF0832B2E8F00F0B6882F3098883F399
:1022A8000B8862B6BFF36F8F704700BFEFF30880EB
:1022B8007146EFF30982EFF30B830CB406B4FFF712
:1022C800FFFE864606BC0CBC00F0080001F00801C1
:1022D800401A01DC12DB70470CB41EF020031CBF4F
:1022E8002DE9F00FBDF1080D0A4C25462646274674
:1022F800A046A146A246A34630B4704730BC1EF0A3
:1023080020031CBF1DF1080DBDE8F00F06BC704787
:1023180000BF0000A5EDF5FE80B584B000AF174BF7
:10232800FB60FB68DB68BB60BB68DB431B0C1B0402
:102338007B60BB689AB27B68134343F48042FB68B6
:10234800DA6000216FF00B00FFF728FF00216FF023
:102358000A00FFF723FF00216FF00800FFF71EFFB8
:1023680000216FF00400FFF719FF03216FF001004F
:10237800FFF714FF00BF1037BD4680BD00ED00E039
:1023880080B400AF00BFBD4680BC7047009A0A4BBE
:102398009A420FD101229043014602460346044661
:1023A8000546064607468046814682468346844659
:1023B80086460447FEE700BFA5EDF5FE80B582B06E
:1023C80000AF786000F074FD00F080FD0346002B3C
:1023D80002D043F6DA3313E000F0B2FD0346002BD7
:1023E80002D043F6DA330BE000F03CFA0346002B48
:1023F80002D043F6DA3303E07B6802221A60002336
:1024080018460837BD4680BD80B590B000AF7860EB
:1024180039607B68002B02D03B68002B02D143F661
:10242800DA3394E00023BB63012387F837307B68F5
:102438009B6803F48063002B14BF0123002387F8F3
:10244800363097F837305B0003F00203BB6397F828
:102458003630BA6B1343BB633B68BA6B1A60002310
:10246800FB636EE07B689B699A007B68D1187B6888
:10247800DA6913465B001344DB000B4430333B63DB
:10248800FA6B13465B0013449B001A463B6B1344DC
:102498009B6803F00803002B4DD0002387F82F30EA
:1024A8000023BB6200BF97F82F3083F00103DBB233
:1024B800002B02D043F6DA3349E0FA6B13465B008F
:1024C80013449B001A463B6B13441B687B627B6A70
:1024D8001B68002B31D07B6A1B68184600F0F0FDA2
:1024E80097F8373083F00103DBB2002B26D01A4B64
:1024F8001B685A1C18490A60FB607B6A1B683B61B1
:102508007B6A5B687B610023BB6101237B770023C7
:10251800BB7701233B7707F10C0319460F48FFF7F8
:1025280011F8034687F8233097F82330002B05D09D
:1025380043F6DA330BE000BF00E000BFFB6B01336A
:10254800FB637B681B6AFA6B9A428BD3002318469D
:102558004037BD4680BD00BF68340020242E0020CF
:1025680080B487B000AF78603960EFF314833B61C3
:102578003B69FB603B6803F00203002B0CBF01239F
:102588000023DAB23B7B62F300033B73FB687B6199
:102598007B6983F31488BFF36F8F00BF00BF0023EC
:1025A80018461C37BD4680BC704790B591B000AF47
:1025B800F860B9607A60FB687B627B6A43E800F385
:1025C800BB61BB693B62FA68BB681344013BBB62F1
:1025D800BB6A43E800F37B617B69FB6197F82330B2
:1025E800BB63FB7F7B63FB683B63FFF7FBFA024639
:1025F800BB6B93424BD3FFF7FCFA02467B6B9342CB
:1026080045D8B86BFFF7E1FA02463B6BD31A0133A2
:10261800FB623B6B7A68F96A184607F039FA034699
:10262800002B01D1002387E0BB6B0133FB6315E06E
:10263800FB6B1846FFF7BEFA38633C6BFFF7E0FA0E
:1026480003467A681946204607F022FA0346002B0B
:1026580001D1002370E0FB6B0133FB63FB6B7A6BEA
:102668009A42E5D8786BFFF7A5FA3863FA68BB6831
:102678001A443B6BD31AFB623B6B7A68F96A1846BB
:1026880007F006FA0346002B55D1002354E0FFF764
:10269800DCFA0246BB6B93424BD3FFF7DDFA0246E6
:1026A8007B6B934245D8B86BFFF7C0FA02463B6B89
:1026B800D31A0133FB623B6B7A68F96A184607F054
:1026C800E7F90346002B01D1002335E0BB6B01334A
:1026D800FB6315E0FB6B1846FFF79AFA38633C6B0F
:1026E800FFF7C1FA03467A681946204607F0D0F981
:1026F8000346002B01D100231EE0FB6B0133FB6373
:10270800FB6B7A6B9A42E5D8786BFFF781FA3863EE
:10271800FA68BB681A443B6BD31AFB623B6B7A6856
:10272800F96A184607F0B4F90346002B03D10023D1
:1027380002E0002300E0012318464437BD4690BD5F
:1027480080B58EB000AFF860B9607A603B60002356
:102758007B637B68002B01D100237FE0FB6803F0DB
:102768000203002B03D17B6B43F004037B63FB68FC
:1027780003F00103002B18D0EFF39483FB62FB6A8C
:102788003B6297F8203003F00103DBB2002B04D042
:102798007B6B43F004037B6303E07B6B23F0040350
:1027A8007B637B6B43F012037B633B6803F0060398
:1027B800062B04D17B6B43F001037B630CE03B6881
:1027C80003F00203002B04D07B6B43F008037B6308
:1027D80002E04CF2DA2341E0BB687A6B796818466C
:1027E80007F056F90346002B14BF01230023DBB280
:1027F8003B633B6B002B2AD1BB687B627B6A43E857
:1028080000F37B617B69FB61BA687B681344013B19
:10281800BB62BB6A43E800F33B613B69BB61BB7FBA
:1028280023F07F03DBB2002B11D0BB7E23F07F03A4
:10283800DBB2002B0BD0FA7FFB7E9A4207D0BB6835
:102848007A6B79681846FFF7B0FE03463B633B6B2B
:10285800002B01D0002301E06FF07F0318463837C2
:10286800BD4680BD80B586B000AF5548FEF7F9FE7D
:10287800544B1B685A1C53490A603B60524BDB6837
:102888007B60514B1B69BB600123FB6003237B7496
:102898000023BB7400233B743B4619464848FEF7A7
:1028A80051FE0346FB75FB7D002B02D043F6DA335D
:1028B80081E0444B1B685A1C42490A603B60434B09
:1028C8007B60434BBB600123FB6003237B740023C5
:1028D800BB7400233B743B4619463948FEF732FE69
:1028E8000346FB75FB7D002B02D043F6DA3362E02A
:1028F800344B1B685A1C33490A603B60354B7B607C
:10290800354BBB600123FB6003237B740023BB743E
:1029180000233B743B4619462948FEF713FE03463D
:10292800FB75FB7D002B02D043F6DA3343E0254BE1
:102938001B685A1C23490A603B60284B7B60284B64
:10294800BB600223FB6001237B740023BB7401235B
:102958003B743B4619461A48FEF7F4FD0346FB75DF
:10296800FB7D002B02D043F6DA3324E0154B1B68BD
:102978005A1C14490A603B601A4B7B601A4BBB60B7
:102988000223FB6001237B740023BB7401233B7487
:102998003B4619460A48FEF7D5FD0346FB75FB7D05
:1029A800002B02D043F6DA3305E001220121044866
:1029B800FEF798FD002318461837BD4680BD00BFB6
:1029C800242E00206834002064550000E0550000E3
:1029D800609E0000A00D0000A00D0000201C00203B
:1029E800401C0020001C0020201C002080B483B064
:1029F80000AF786039607A683B689A4201D1002359
:102A08000CE07B6803F00203002B06D03B6803F060
:102A18000203002B01D0002300E0012318460C37E5
:102A2800BD4680BC7047000080B483B000AF034649
:102A3800FB7197F90730002B0CDBFB7903F01F02C1
:102A4800074997F907305B09012000FA02F2603361
:102A580041F8232000BF0C37BD4680BC704700BF3B
:102A680000E100E080B400AF064BD3F80031054B1D
:102A7800D3F80831034BD3F8043100BFBD4680BCFE
:102A8800704700BF0030005080B500AFFFF7EAFF85
:102A9800FEF75EFF0320FFF7C7FFFFF769FA00BFE5
:102AA80080BDFFF7F1FFFEE700BF000080B483B0F0
:102AB80000AF0346FB7197F90730002B0BDBFB795E
:102AC80003F01F02064997F907305B09012000FA55
:102AD80002F241F8232000BF0C37BD4680BC704786
:102AE80000E100E080B483B000AF0346FB7197F9C2
:102AF8000730002B0CDBFB7903F01F02074997F91D
:102B080007305B09012000FA02F2603341F8232004
:102B180000BF0C37BD4680BC704700BF00E100E035
:102B280080B483B000AF0346FB7197F90730002BE0
:102B380024DB154A97F907305B09A03352F82310B4
:102B4800FB7903F01F03012202FA03F3DA430E486C
:102B580097F907305B090A40A03340F823200A4A56
:102B680097F907305B09A03352F82320FB7903F06B
:102B78001F0322FA03F303F0010300E000231846C1
:102B88000C37BD4680BC704700E100E080B483B0DC
:102B980000AF03463960FB7197F90730002B0ADB59
:102BA8003B68DAB20C4997F907305201D2B20B44AC
:102BB80083F800230AE03B68DAB20849FB7903F09E
:102BC8000F03043B5201D2B20B441A7600BF0C37F4
:102BD800BD4680BC704700BF00E100E000ED00E0AA
:102BE80080B400AF044B1B68034A23F00103136051
:102BF80000BFBD4680BC7047D0ED00E080B584B012
:102C080000AFF8607A601A460B46FB721346BB7237
:102C1800FB7AFA689033DB0013445B6803F0010326
:102C2800002B06D00D4B0E4A4FF44F710D4805F09E
:102C38001DFFFA7AFB689032796843F83210BB7A44
:102C4800002B06D0FB7AFA689033DB00134401228C
:102C58005A6000BF1037BD4680BD00BF90540000C9
:102C680078550000C054000080B584B000AFF8600B
:102C78007A601A460B46FB721346BB72FB7AFA68F7
:102C88009833DB0013445B6803F00103002B06D084
:102C98000D4B0E4A40F24B310D4805F0E7FEFA7A2B
:102CA800FB689832796843F83210BB7A002B06D05B
:102CB800FB7AFA689833DB00134401225A6000BF9C
:102CC8001037BD4680BD00BFF45400009055000089
:102CD800C054000080B584B000AFF860B9601146F8
:102CE8001A460B46FB711346BB71FB68BA6802F5BE
:102CF800887253F8223003F48073002B06D0104BEF
:102D0800104A40F2A131104805F0B0FEFB79002BC3
:102D180001D0102200E00022BB79002B02D04FF432
:102D2800807300E0002342EA0301FB68BA6802F5F9
:102D3800887243F8221000BF1037BD4680BD00BF1F
:102D48002C550000A8550000C054000080B582B082
:102D580000AF78600B46FB70FB787A680021034867
:102D6800FFF74CFF00BF0837BD4680BD003000505C
:102D780080B582B000AF03463960FB711346BB7162
:102D8800BB79F9793A680348FFF76EFF00BF083747
:102D9800BD4680BD0030005080B582B000AF78607D
:102DA8000B467B807B88002B0ED1FEF769FBBFF3B7
:102DB8006F8F00BF7B680022C3F84025BFF36F8F79
:102DC80000BFFEF76DFB03E07A887B68C3F84025F7
:102DD80000BF0837BD4680BD80B500AF40F2011185
:102DE8000248FFF7D9FF00BF80BD00BF0090035025
:102DF80080B500AF00216FF00800FFF7C7FE044B55
:102E08005B6A034A43F4702353620023184680BD6B
:102E180000ED00E080B483B000AF094BDB687B6055
:102E28007B689BB27B607A68064B13437B60044ADD
:102E38007B68D360002318460C37BD4680BC7047BA
:102E480000ED00E00800FA0580B400AF0023184642
:102E5800BD4680BC7047000080B582B000AF00233B
:102E6800FB7109E00A4AFB79A0334FF0FF3142F8C1
:102E78002310FB790133FB71FB790F2BF2D9032067
:102E8800FFF74EFE002318460837BD4680BD00BF39
:102E980000E100E080B500AFFEF750FD0320FFF72A
:102EA80021FE0320FFF702FE0023184680BD000024
:102EB80080B500AFFFF794FE034B1B68024A43F04E
:102EC8000203136000BF80BDD0ED00E080B584B080
:102ED80002AFFEF76FFD00237B607B6843F00403BD
:102EE8007B607B6843F002037B607B6843F00103EF
:102EF8007B60104B58680F4B9968012300937B68DF
:102F08000022FEF79DFD012300937B6800220A49F9
:102F18000A48FEF7BFFD074BDA68064B1B69013B01
:102F280019461046FEF7E4FD002318460837BD464B
:102F380080BD00BF64550000FFFF03200080002013
:102F480080B500AF00214248FEF7C4FE00214FF0D3
:102F58005020FEF7BFFE00213E48FEF7BBFE0021D1
:102F68003D48FEF7B7FE00213C48FEF7B3FE0021BE
:102F78003B48FEF7AFFE00213A48FEF7ABFE0021C2
:102F88003948FEF7A7FE00213848FEF7A3FE0021C6
:102F98003748FEF79FFE00213648FEF79BFE0021CA
:102FA8003548FEF797FE00213448FEF793FE0021CE
:102FB8003348FEF78FFE00213248FEF78BFE0021D2
:102FC8003148FEF787FE00213048FEF783FE0021D6
:102FD8002F48FEF77FFE00212E48FEF77BFE0021DA
:102FE8002D48FEF777FE00212C48FEF773FE0021DE
:102FF8002B48FEF76FFE00212A48FEF76BFE0021E2
:103008002948FEF767FE00212848FEF763FE0021E5
:103018002748FEF75FFE00212648FEF75BFE0021E9
:103028002548FEF757FE01210020FFF78FFE0122F9
:1030380000210020FFF79CFEFFF7CEFE01230022AF
:1030480000211E48FFF746FE0023184680BD00BF3A
:1030580000400050008000500090005000A0005038
:1030680000B0005000E0005000F000500000015097
:1030780000100150004001500050015000700150F4
:103088000080015000B0015000C0015000D0015034
:1030980000E0015000F00150000002500010025002
:1030A80000200250003002500040025000A00250A0
:1030B800009003500025845000A0035000300050B9
:1030C80080B582B000AF786001217868FEF7D4FD42
:1030D80000BF0837BD4680BD80B586B000AF034647
:1030E800FB714FF0FF333B610123FB6000F028FBCD
:1030F800B86001237B6110E00C4A7B6952F83330D9
:10310800BA689A4206D1FB790F22934202D1002372
:103118003B6106E07B6901337B617A69FB689A420F
:10312800EAD33B6918461837BD4680BDC055000034
:1031380080B400AF034B01221A6000BFBD4680BCBB
:10314800704700BF6C34002080B588B000AF78604D
:103158007B681B68FB777B6804331B68BB617B68F3
:1031680008331B68FB82204B1B685B681C3B3B6178
:103178004FF0FF33FB603B699868B969FA8A062308
:10318800FFF7DEFAF860FB68002B03D07B680322A8
:103198001A6026E0154B1B68012B03D07B680322BD
:1031A8001A601EE0FB7F1846FFF796FF0346002BC8
:1031B80003D07B6803221A6013E0FB8A032B03D831
:1031C8007B6803221A600CE0BB69BB60BB6842F2F3
:1031D80016021A80BB6804225A807B6800221A6093
:1031E80000BF2037BD4680BD383900206C34002030
:1031F80080B485B000AF78607B68FB60FB6883F3C0
:103208000B8800BF00BF1437BD4680BC7047000064
:1032180080B483B000AF78607B6803F00703002BAD
:1032280000D0FEE77B68083B7B607B68064A1A6033
:103238007B6804331A46044B13607B6818460C37C6
:10324800BD4680BC704700BFA5EDF5FE04460D469F
:10325800A546284700BF80B485B000AF78603960C4
:103268007B68FB60FB681B69002B09D0FB681B6946
:103278001A463B681360FB684FF0EE325A6104E06F
:10328800FB681B681A463B68936200BF1437BD464B
:1032980080BC704705484FF080510160BFF34F8FE5
:1032A800BFF36F8F704700BF1846000004ED00E0C1
:1032B80080B588B000AFF860B9607A603B60FB68A1
:1032C8001B68FB61FB689B68BB61F869FFF7A0FF9F
:1032D80003467B617B69483BBA699A4201D9FEF78C
:1032E80047FE7B69483B7B6148220021786902F0F0
:1032F800A8FA7A687B699A627B69BA681A647B69FA
:103308003A68DA637B694FF080725A64FB686FF041
:1033180002025A607A69FB681A6000BF2037BD460E
:1033280080BD80B586B000AF78607B687B617B69C3
:103338001B6828333B617B699B681846FFF758FF79
:103348003B69FB60FB6883F3098800BF7B695B68A6
:1033580018461837BD4680BD80B483B000AFEFF380
:10336800108372B67B607B6818460C37BD4680BCFC
:10337800704780B483B000AF78607B6883F31088AF
:1033880000BF0C37BD4680BC7047000080B485B0D4
:1033980000AF78600B4B1B68013303F00703094A41
:1033A80013607B68084A12689B1ADA00054B1B6891
:1033B80013440133FB60FB6818461437BD4680BCD4
:1033C800704700BF24390020282E002080B485B023
:1033D80000AF78607B68002B01D1002307E07B6891
:1033E800013BDB08044A12681344FB60FB6818467B
:1033F8001437BD4680BC7047282E002080B582B0A7
:1034080000AF0C4B1B68184601F0AFF878607B687A
:10341800002B01D1002308E080220021786802F007
:1034280010FA7B6800221A607B6818460837BD4688
:1034380080BD00BF282E002080B582B000AF786024
:10344800094B1B687968184601F0C6F8034683F0F3
:103458000103DBB2002B02D06FF0FC0300E0002375
:1034680018460837BD4680BD282E002080B584B098
:1034780000AF78600023FB607B68002B00D1FEE77B
:10348800FFF76AFF0346FB60064B1B68796818461E
:1034980001F08EF8FB681846FFF76BFF00BF103786
:1034A800BD4680BD282E002080B588B000AF78606A
:1034B800396000237B610023FB6000233B61FFF739
:1034C8004BFF0346FB607B684433BB617B685B6CE6
:1034D800FB6111E0FB699B681B685B693A689A426B
:1034E80004D1BB697B613B6901333B61FB697C3378
:1034F800BB61FB69DB6FFB61FB69002BEAD17B6970
:10350800002B11D07B691B68FB617B691B68DA6F34
:103518007B691A603B69012B06D17B685A693B6855
:10352800DB431A407B685A61FB681846FFF721FFA6
:10353800FB6918462037BD4680BD000080B485B0C1
:1035480000AF78600023FB60134B5B68BB601AE038
:10355800BB681B685B687A689A420FD1FB68002BCE
:103568000AD0BB689A68FB689A600B4B5A68BB68BC
:103578009A60094ABB685360BB6808E0BB68FB6097
:10358800FB689B68BB60BB68002BE1D10023184631
:103598001437BD4680BC70477034002080B483B0B7
:1035A80000AF786039607B68002B00D1FEE77B684C
:1035B8001B689B6803F48063002B03D0B3F5806F0E
:1035C80009D011E07B681B68DB683A689A420ED91B
:1035D8006FF0FA030FE07B681B68DB683A689A4271
:1035E80007D06FF0FA0306E06FF0FA0303E000BFBC
:1035F80000E000BF002318460C37BD4680BC70476A
:1036080080B588B000AFF860B9601346FB7100233D
:10361800BB61BB68002B00D1FEE7FB79002B09D00A
:10362800BB681B689B6803F48073002B2FD16FF075
:10363800FC032DE0184B1B685B681C3BBB61BB6936
:10364800002B01D1FEF794FCBB691B6830337B610A
:103658000023FB610AE0FB699B007A6913441B683D
:10366800FA689A4209D0FB690133FB61BB691B68A0
:103678009A69FB699A42EED800E000BFBB691B68F3
:103688009A69FB699A4202D16FF0FC0300E00023BB
:1036980018462037BD4680BD3839002080B584B033
:1036A80000AF78607868FFF791FEF860F868FFF778
:1036B800C3FE0346002B01D000230DE000F040F8C4
:1036C800B860FB689B685B681B685B68BA689A426D
:1036D80001D0002300E0FB6818461037BD4680BDC6
:1036E80080B584B000AFF860B9607A603B60FB6871
:1036F800002B00D1FEE7BB68002B00D1FEE7FB687A
:103708000C332C220021184602F09BF8FB68BA689B
:103718009A600A4B1B685B681C3B1A46FB685A6038
:10372800FB68BA695A61FB683A68DA60FB687A68CC
:103738001A6100BF1037BD4680BD00BF3839002070
:1037480080B483B000AF0B4B1B685B681C3B7B608D
:103758007B68002B07D07B681B68002B03D07B6835
:103768001B685B6801E04FF0FF3318460C37BD4615
:1037780080BC70473839002080B582B000AF0C4B50
:103788001B685B681C3B7B607B68002B01D1FEF7E4
:10379800EFFB7B681B689B6803F48063002B14BFF6
:1037A80001230023DBB218460837BD4680BD00BFA1
:1037B8003839002080B584B000AF0346FB71FB792F
:1037C800002B03D001F015F8F86002E0FFF7B8FF0E
:1037D800F860FB79FA68D20FD2B2934201D0FEF7B3
:1037E800C7FBFB6818461037BD4680BD80B584B05E
:1037F80000AF4FF0FF33FB601D4B18680823802291
:1038080040F22C4100F066FE1A4B00225A601A4B17
:1038180000225A6000F0F6FF164800F033F9B8604D
:10382800BB68002B1CD08023144A1349B86800F0E9
:10383800CBF97860B86800F078FABB681A68BB689A
:10384800083319461046FEF7DFFDF860FB68002BC9
:1038580001D0FEF78DFB7968B86800F0C1FCDBE7A2
:1038680000BF00F047FD034618461037BD4680BD2F
:10387800282E0020283900207034002078340020B9
:1038880080B485B000AF78600023FB6026E07A68DA
:10389800FB6808339B0013449B68002B1AD07B6895
:1038A8009A6FFB68DB0013441A687B68F9680B3170
:1038B80053F831309A4200D0FEE77B689A6FFB6874
:1038C800DB001A447968FB680B33DB000B445B6848
:1038D800536000E000BFFB680133FB60FB68032B0B
:1038E800D5D900BF00BF1437BD4680BC7047000063
:1038F80090B587B000AF786039603B687B610F4B4B
:103908001B685B681C3B3B613B693A68DA623B6950
:103918000B4A1A637C687B6918687B6959687B69FC
:103928009A687B69DB68A047F860F86800F01FFABE
:10393800FB6818461C37BD4690BD00BF38390020CB
:10394800EDEEEEEE80B584B000AF786039600E4BD6
:103958001B685B681C3BFB603B68BB60FB681B6BC0
:103968000A4A934202D17A68BB681A6000F06CFE7A
:103978000246054B1B689A4201D0FFF78BFC00BF3B
:103988001037BD4680BD00BF38390020EDEEEEEEA1
:1039980080B586B000AF7860396000237B61002372
:1039A8003B61EFF30583FB60FB68BB603B89C3F3B6
:1039B80008039BB2002B01D0FEF7DAFA0E4B1B6806
:1039C8009B683A689A4205D90B4B1B68DB683A68D2
:1039D8009A4207D9084B1B681B687B61064B1B681A
:1039E8009B683B613B697A6939687868FEF700FC37
:1039F80000BF1837BD4680BD3039002080B582B081
:103A080000AF0A4B1B687B60084B1B684C33074AA6
:103A18001360064B1A68064B1B689A4201D9FEF7D9
:103A2800A7FA7B6818460837BD4680BD342E0020AB
:103A3800382E002080B584B000AF78600F4B1B682B
:103A4800FB607B68002B01D1002313E07A681346E2
:103A58005B0013449B001A46084B1B681344074A33
:103A68001360064B1A68064B1B689A4201D9FEF789
:103A78007FFAFB6818461037BD4680BD3C2E0020F3
:103A8800402E002080B584B000AF78607B68002BA2
:103A980001D1FEF76DFA494B1B6813F1290F07D8BE
:103AA800464B1B6803F12802454B1B689A4201D319
:103AB80000237FE0414B1B68FB60404B1B68D943E8
:103AC800FB689869FB68DA6913465B0013445B007E
:103AD8001844FB681A6A13465B0013441844FB68D1
:103AE8005A6A13469B00134403440C339B009942C3
:103AF8001DD3FB689969FB68DA6913465B001344B8
:103B08005B001944FB681A6A13465B0013441944A6
:103B1800FB685A6A13469B0013440B440C339A0003
:103B2800264B1B681A44264B1B689A4201D9FEF79C
:103B38001FFAFB681B681B0C1B04224A934201D026
:103B4800FEF716FAFB681B689BB2B3F5817F01D3B9
:103B5800FEF70EFAFB685B68002B01DAFEF708FA3D
:103B6800FFF74CFFB860BB68FA681A60FB68996990
:103B7800FB68DA6913465B0013445B001944FB6871
:103B88001A6A13465B0013441944FB685A6A1346C1
:103B98009B0013440B440C339A00084B1B681344D6
:103BA800064A13607B685A68BB689A647B68BA687F
:103BB8005A60BB6818461037BD4680BD2C2E0020C1
:103BC800302E002000005F5F80B58CB000AFF86039
:103BD800B9607A603B600023BB62FB68002B02D0AF
:103BE800BB68002B01D1FEF7C3F9FB681B687B6239
:103BF8007B6A9B699A007B6A134430333B627B6A19
:103C0800DB691846FFF716FFF8610023FB627EE0C8
:103C1800FA6A13465B001344DB001946FA6A134636
:103C28005B0013449B001A46FB6913443A6A0A4432
:103C38001A60FA6A13465B0013449B001A46FB6934
:103C48001344FA685A60FA6A13465B0013449B00EF
:103C58001A46FB69134400229A60FA6A13465B000D
:103C68001344DB001A463B6A13445B69BA6A134380
:103C7800BB62FA6A13465B001344DB001A463B6AD0
:103C880013449B68BB61BB6903F40073002B26D007
:103C98007B68002B05D03B68002B02D03B68802B4B
:103CA80001D0FEF765F9BB69DBB27B617B691F2B2D
:103CB80006D87B699B007A6813441B68002B01D0E7
:103CC800FEF756F9FA6A13465B0013449B0019463F
:103CD8007B699B007A681344FA690A441A60FA6A95
:103CE80013465B0013449B001A46FB691344BA68E9
:103CF80052689A60FA6A13465B0013449B001A469E
:103D0800FB691A44BB685A60FB6A0133FB627B6A31
:103D1800DB69FA6A9A4203D2FB69002B7FF478AF19
:103D2800BB6A18463037BD4680BD80B483B000AF4B
:103D3800786000BF0C37BD4680BC704780B483B044
:103D480000AFEFF3108372B67B607B6818460C37C0
:103D5800BD4680BC704780B483B000AF78607B6894
:103D680083F3108800BF0C37BD4680BC704780B510
:103D780082B000AF78607B6813F1810F03D07B6855
:103D880013F1820F09D1FFF7F7FC034683F0010313
:103D9800DBB2002B01D0FEF7EBF800BF0837BD46B9
:103DA80080BD80B400AF00231846BD4680BC704774
:103DB80080B584B000AF786039600023FB603B6851
:103DC80003F000433B60114B1B685B681C3BFB60C6
:103DD800FB68DB68002B07D0FB68DA687B68134058
:103DE800002B01D1FEF7C4F83B68B3F1004F05D1B1
:103DF8007968F86800F0B6FA034603E0FB685A6988
:103E08007B68134018461037BD4680BD38390020FE
:103E180080B586B000AF7860396000237B610023ED
:103E28003B614FF0FF33FB607B68002B05D07B685C
:103E38005A1E7B681340002B01D0FEF799F81B4BE4
:103E48001B685B681C3B3B613B69986839680623C3
:103E58002C22FEF775FCF860FB68002B01D0FEF7FA
:103E680087F83B695B69002B01D1FEF781F83B6954
:103E78005A697B681340002B01D1FEF779F87968FD
:103E88003869FFF711FB78617B69002B02D16FF06D
:103E98008B0307E07B690C332C221946386801F044
:103EA800F9FF002318461837BD4680BD3839002071
:103EB80080B586B000AF7860396000237B6100234D
:103EC800BB607868FFF7EAFB38613B69002B01D1DA
:103ED800FEF74EF83B699B68FB60FB68002B01D13D
:103EE800FEF746F83B69DB6813F1020F1ED0B3F109
:103EF800FF3F1FD13B68002B02D17B687B612FE01D
:103F08003B6813F1820F06D16FF081037B613B6937
:103F180002221A6024E03B6813F1830F03D16FF08B
:103F280082037B611CE0FEF723F819E03B6902225B
:103F38001A6015E03B69DB68002B0FDB3B687B618F
:103F48003869FFF79DFCFB681B689B6803F40073E6
:103F5800002B05D03B6902221A6001E0FEF708F841
:103F68007B6913F1810F05D13B695B69002B01DB8C
:103F7800FDF7FEFFFFF7E2FE0346BB60796938698B
:103F880000F01AF97861BB681846FFF7E4FE3B6950
:103F98001B68022B03D13869FFF768FA02E03B6916
:103FA80000221A607B6918461837BD4680BD80B567
:103FB80000AFFDF767FF00BF80BD80B483B000AFDE
:103FC800EFF3108372B67B607B6818460C37BD46EA
:103FD80080BC704780B483B000AF78607B6883F39F
:103FE800108800BF0C37BD4680BC704780B586B0CE
:103FF80000AF786039600023BB6000233B617B68B9
:104008005B787B610023FB607B685B681C3B3B61E2
:10401800FFF7D3FF0346BB603B691A693B695B69DD
:104028001340FB60FB68002B16D0FB68022B0AD1FB
:104038003B695B6923F002023B695A613B691A6C70
:104048003B681A6002E03B68FA681A603B69002224
:104058001A6105237B6105E03B691B69002B01D0D0
:1040680002237B61BB681846FFF7B4FF7B691846DB
:104078001837BD4680BD000080B48BB000AF7860B3
:104088007B681B68FB61FB699B699A00FB691344A9
:104098003033BB617B681C337B610C237B62FB691B
:1040A8009B6803F40073002B05D1FB69DB699B0057
:1040B8007A6A13447B627B691A687B6A073323F048
:1040C8000703D21A7B691A607B691B683B61FB692D
:1040D800DA683B691A603B69194A5A603B690022F1
:1040E8009A603B690C33FB60FB699B6803F40073BF
:1040F800002B1DD100233B6211E03A6A13465B0096
:104108001344DB001A46BB69134419693B6A9B00D8
:10411800FA6813440A461A603B6A01333B62FB693A
:10412800DA693B6A9A42E8D8FB69DA693B699A60BE
:104138007B683A699A6100BF2C37BD4680BC7047DE
:10414800C09B000080B584B000AF78603960002360
:10415800FB600023BB603B68002B0AD07B68002B08
:1041680007D07B681B68002B03D07B685B68002B3B
:1041780002D16FF080031BE07B685B68FB607B68A3
:104188001B685B69BB60FB685A6C3B68DA67FB6855
:104198003A685A64B968F86800F008F93B685B68DF
:1041A8000221184600F0DEF83B6801221A6000235D
:1041B80018461037BD4680BD80B582B000AF786024
:1041C80039607B685B683A681A647B685B680221BF
:1041D800184600F0EBF8002318460837BD4680BDA6
:1041E80080B586B000AF786039607B681B68FB607B
:1041F80000233B617B68DA683B681A437B68DA60B6
:104208007B68002B02D07B6800225A64FB68283345
:104218001A68FB681B69134423F007027B68DA619C
:10422800FB6828331B68073323F007027B685A6250
:104238007B68DA697B689A627B6800221A627B680D
:104248000022DA627B68284A1A637868FFF714FF4D
:10425800FB689B68DAB27B6883F834207B680022AD
:1042680083F835207B680022DA867B6803F11C021C
:104278007B689A63FB689B6803F48063002B09D012
:10428800FB689B6803F40063002B03D07B681C3336
:10429800164A1360FB689B6803F40073002B03D075
:1042A800FB68DB687B6101E0114B7B61FB689B6805
:1042B80003F48063002B09D0FB689B6803F4006358
:1042C800002B03D000F004FB03463B617B6803F13D
:1042D80034003B696FF00102796900F023FA00BFEE
:1042E8001837BD4680BD00BFEDEEEEEE3039002038
:1042F800295F000080B584B000AF4FF0FF33FB604A
:10430800134B1B68002B00D1FEE7124800F08EF912
:10431800114B124A1A60124800F052FAB860104B5A
:104328001B685B681C3B7B607B681A687B689B68C2
:1043380019461046FEF714F9F860FB68002B01D007
:10434800FDF716FEBB6818461037BD4680BD00BF96
:1043580030390020F53F000034390020001C0020CF
:104368003839002080B584B000AF78603960002308
:10437800BB607B68002B01D1FDF7FAFDFFF71DFE3E
:104388000346BB607B685B693A681340FB60FB6867
:10439800002B02D17B683A681A61BB681846FFF7A0
:1043A80019FEFB6818461037BD4680BD80B584B03D
:1043B80000AF786039600023FB607B68002B01D177
:1043C800FDF7D6FDFFF7F9FD0346FB607B685A69E8
:1043D8003B681A437B685A61FB681846FFF7FAFD89
:1043E800002318461037BD4680BD000080B58AB04E
:1043F80000AF4FF0FF337B6200F026F938620023EC
:104408007B60314B1B685B68FB61FB69BB60FB69C8
:10441800FB602D4B1B685B681C3BBB613B6A343BF4
:104428007B612A4B1B68012B39D03B6A002B36D0A5
:10443800BA697B699A4232D0FB699B6803F128020A
:10444800EFF309833B613B699A4201D9FDF790FD7F
:10445800FFF7B3FD03467B60BB699A687B699B687D
:1044680019461046FEF7C2FA0346002B0DD07B69A9
:104478001A687B699B6819461046FEF771F87862DE
:104488007B6A002B01D0FDF773FD3B6A5B68FB601C
:104498000D4A3B6A13607B681846FFF79BFD0C4B7F
:1044A8001B68002B08D07B699B69002B04D07B69B3
:1044B8009A69074B1B681A60D7E902231046194608
:1044C8002837BD4680BD00BF38390020643400203D
:1044D8003439002080B586B000AFF860B9607A60E2
:1044E8003B60FB68002B02D03B68002B02D16FF0C9
:1044F800F80336E07B6804333A6802FB03F30C33B5
:10450800BA689A4202D06FF0F8032AE0BA6800212C
:10451800F86801F096F9FB68002B02D0FB680022CE
:104528001A60FB680C337B6100233B610EE0FB687B
:104538001A687B691A60FB687A691A607A697B680D
:10454800134404337B613B6901333B613A693B683F
:104558009A42ECD3FB687A685A60FB68BA689A603A
:10456800002318461837BD4680BD80B485B000AF1B
:1045780078607B68002B01D1002314E07B68002B56
:1045880003D07B681B68002B01D100230BE07B68FC
:104598001B68FB60FB681A687B681A60FB6800226E
:1045A8001A60FB68043318461437BD4680BC704750
:1045B80080B485B000AF786039603B68043BFB602D
:1045C8007B681A68FB681A607B68FA681A6000BF23
:1045D8001437BD4680BC704780B485B000AF7860A2
:1045E80039607B680C33FB603A68FB68D31ABB60A0
:1045F8003B68FA689A4204D87B689B68BA689A4212
:1046080001D300230DE07B685B681A1DBB68B3FB10
:10461800F2F101FB02F29B1A042B01D0002300E007
:10462800012318461437BD4680BC704780B483B058
:1046380000AF7860034A7B68136000BF0C37BD4643
:1046480080BC70474439002080B582B000AF174B5A
:104658001B687B6000233B601EE0154B1B683A46D5
:104668001146786898470346DAB27B685A707B68C7
:104678005B78052B09D17B685B683A681146184658
:10468800FEF7E9FD7B6801225A707B685B78012B95
:1046980006D07B689B687B607B68002BDDD100E0DF
:1046A80000BF7B6818460837BD4680BD40390020EA
:1046B8004439002080B485B000AF786039607B68E9
:1046C8001B68002B06D03B681A787B681B681B7830
:1046D8009A4207D87B681A683B689A607B683A6890
:1046E8001A6019E07B681B68FB6002E0FB689B6846
:1046F800FB60FB689B68002B06D03B681A78FB6858
:104708009B681B789A42F1D8FB689A683B689A6064
:10471800FB683A689A6000BF00BF1437BD4680BC8A
:104728007047000080B584B000AFF860B9607A6067
:104738003B60FB68002B00D1FEE7F9680848FFF7EB
:10474800B9FFFB685868B9687B683A68FEF7B0FD3E
:104758000121F86800F006F800BF1037BD4680BD9B
:104768003C39002080B483B000AF786039607B6842
:10477800002B00D1FEE73B68DAB27B685A707B6891
:104788005B78012B0ED10C4B1B68002B06D07B6885
:104798001A78094B1B681B789A4203D2064A7B6831
:1047A800136004E0054B1B68034A136000BF00BF99
:1047B8000C37BD4680BC7047403900203C3900208A
:1047C80080B584B000AF7860FFF73EFFF860FEF771
:1047D80061FD7B68002B02D07B68FA681A60FB6871
:1047E8005B681846FEF79DFD034618461037BD4620
:1047F80080BD80B400AF4FF0FF331846BD4680BC83
:104808007047000090B583B000AF084C00F04AF83C
:104818000346A36000F050F803467B607B6883F38F
:10482800888800BF00BF0C37BD4690BD00ED02E090
:1048380080B582B000AF43F65C237B60FEF7D8FA00
:1048480078607B68002B02D043F6DA3326E0FEF767
:10485800E1FA78607B68002B02D043F6DA331DE07A
:10486800FEF7F2FA78607B68002B02D043F6DA3361
:1048780014E062B600BFFEF7EFFA78607B68002BA1
:1048880002D043F6DA3309E0FEF704FB78607B6870
:10489800002B02D043F6DA3300E00023184608372D
:1048A800BD4680BD80B400AF024B1B681846BD46AC
:1048B80080BC70476455000080B400AF034B1B6890
:1048C8001B681846BD4680BC704700BF6455000091
:1048D80080B400AF034B1B6804331B681846BD4601
:1048E80080BC70476455000080B483B000AFEFF31C
:1048F800108372B67B607B6818460C37BD4680BC57
:10490800704780B483B000AF78607B6883F3108809
:1049180000BF0C37BD4680BC7047000080B5A6B00C
:1049280002AFF860B9607A603B6000237B61FEF7F4
:1049380023FF034687F88730B74B1B685B681C3B2F
:10494800C7F88030BB681B0C1BB2FB67BB681B0A2F
:10495800DBB2BB67BB68DBB27B674FF0FF333B67FB
:10496800FB6F002B02DA6FF08003B7E17B6FDB434C
:10497800BA6F9A4204D8BA6F7B6F1344042B02D9DA
:104988006FF08003AAE1FB68002B02D16FF080036F
:10499800A4E197F887301846FEF70CFFF866FB6825
:1049A80003F08043002B50D0FB6803F01F03BB6665
:1049B8009A4ABB6E52F823307B667B6E002B02D17D
:1049C8006FF080038AE17B6E1B685B683B6697F833
:1049D80087301A46796E386EFEF712FE0346002BB2
:1049E80002D06FF0810379E1FB681B12DBB2FB6533
:1049F800F96D786EFEF7D2FD0346002B02D06FF0FA
:104A080080036BE1FFF770FF03467B61FEF7F6FC5E
:104A1800B8657B691846FFF774FFBB6D002B02D1A0
:104A28006FF082035AE1B86DFEF7B0FCF860D7F872
:104A3800803098687968BB6FDA000223FDF780FE42
:104A480038673B6F002B06D002E06FF0800345E12A
:104A58006FF0800342E1D7F88030986839687B6F3F
:104A6800DA000623FDF76CFE38673B6F002B02D097
:104A78006FF0800332E107F1380320220021184645
:104A880000F0DFFE07F1180320220021184600F08D
:104A9800D8FEBB6FDA0007F138037968184601F0D1
:104AA800F9F97B6FDA0007F118033968184601F045
:104AB800F1F90023C7F88C3020E0D7F880309868E7
:104AC800D7F88C30DB0090333B4453F8583C1946F8
:104AD800D7F88C30DB0090333B4453F8542C022336
:104AE800FDF72EFE38673B6F002B02D06FF0800376
:104AF800F4E0D7F88C300133C7F88C30D7F88C3015
:104B0800BA6F9A42D9D80023C7F88C3047E0D7F853
:104B18008C300133C7F8883037E0D7F88830DB00AD
:104B280090333B4453F8582CD7F88830DB00903347
:104B38003B4453F8543C1A44D7F88C30DB0090338C
:104B48003B4453F8583C9A421AD9D7F88830DB00CE
:104B580090333B4453F8582CD7F88C30DB00903313
:104B68003B4453F8581CD7F88C30DB0090333B4457
:104B780053F8543C0B449A4202D26FF08003ADE0E4
:104B8800D7F888300133C7F88830D7F88830BA6F3B
:104B98009A42C2D8D7F88C300133C7F88C30D7F88E
:104BA8008C3001331A46BB6F9342B0D80023C7F844
:104BB8008C3020E0D7F880309868D7F88C30DB004C
:104BC80090333B4453F8783C1946D7F88C30DB00D7
:104BD80090333B4453F8742C0623FDF7B1FD386736
:104BE8003B6F002B02D06FF0800377E0D7F88C3052
:104BF8000133C7F88C30D7F88C307A6F9A42D9D8FD
:104C0800FB6E0093FB6FFA68796EB86DFEF768FD6E
:104C18000023C7F88C3023E038390020783400208E
:104C2800D7F88C30DB0090333B4453F8542CB96DE3
:104C3800D7F88C3004339B000B449A60D7F88C303B
:104C4800DB0090333B4453F8581CBB6DD7F88C20DD
:104C5800073243F83210D7F88C300133C7F88C305C
:104C6800D7F88C30BA6F9A42DAD80023C7F88C305C
:104C780027E0D7F88C30DB0090333B4453F8742C92
:104C8800B96DD7F88C3008339B000B449A60D7F87D
:104C98008C30DB0090333B4453F8781CBB6DD7F85D
:104CA8008C200B3243F83210BA6DD7F88C300B33A6
:104CB800DB00134400225A60D7F88C300133C7F860
:104CC8008C30D7F88C307A6F9A42D2D8BB6D3A685C
:104CD8009A67B96D786EFFF735FA0346184690372C
:104CE800BD4680BD80B400AF40F201131846BD46F2
:104CF80080BC704780B584B000AF7860FEF73CFD9B
:104D08000346FB737868FEF719FCB860BB68002B94
:104D180001D100230DE0FB7B1A46B9687868FEF7DD
:104D28006FFC0346002B01D0002302E0BB681B6820
:104D3800DB6818461037BD4680BD000080B588B0D6
:104D480000AFF860B9607A603B600023FB61334BC9
:104D58001B685B681C3BBB614FF0FF337B61F868E5
:104D6800FEF79CFCF861FB69002B01D1FDF700F907
:104D7800FB69DB68002B01DAFDF7FAF8BB68032B47
:104D880001D9FDF7F5F8FA69BB6804339B001344B1
:104D98009B68002B01D100233CE0BB6998687968C7
:104DA80006233A68FDF7CCFC78617B69002B01D0BB
:104DB800FDF7DEF8FA69BB6804339B0013449B686F
:104DC8003A68934228BF13463B61FB69BA680732C9
:104DD80053F832303A691946786801F05BF8FB6994
:104DE800BA68073253F832203B69D118FB69BA68B0
:104DF800073243F83210FA69BB6804339B00134446
:104E08009A683B69D21AF969BB6804339B000B4462
:104E18009A603B6918462037BD4680BD3839002066
:104E280080B586B000AFF860B9607A6000237B6116
:104E3800F868FEF733FC78617B69002B01D1FDF738
:104E480097F87B69DB68002B01DAFDF791F8BB68FE
:104E5800032B01D9FDF78CF87A69BB6804339B00F2
:104E680013449B68002B01D100232AE07A69BB68B0
:104E780004339B0013449B687A689A4206D97A697E
:104E8800BB6804339B0013449B687B607B69BA68EA
:104E9800073253F832207B68D1187B69BA68073229
:104EA80043F832107A69BB6804339B0013449A684C
:104EB8007B68D21A7969BB6804339B000B449A60FB
:104EC8007B6818461837BD4680BD000080B588B09D
:104ED80000AFF860B9607A603B600023FB612F4B3C
:104EE8001B685B681C3BBB614FF0FF337B61F86854
:104EF800FEF7D4FBF861FB69002B01D1FDF738F808
:104F0800FB69DB68002B01DAFDF732F8BB68032B7D
:104F180001D9FDF72DF8FA69BB6808339B001344E3
:104F28009A68F969BB680B33DB000B445B68D31ADA
:104F38003A689A4201D9FDF71BF8BB699868796805
:104F480002233A68FDF7FCFB78617B69002B01D0EE
:104F5800FDF70EF8FB69BA680B3253F83220F9698D
:104F6800BB680B33DB000B445B6813443A68796811
:104F7800184600F08FFFFA69BB680B33DB00134457
:104F88005A683B681A44F969BB680B33DB000B4469
:104F98005A6000BF2037BD4680BD00BF38390020A9
:104FA800696E5F637269746963616C5F736563746A
:104FB800696F6E203E203000433A2F6E63732F7660
:104FC800322E352E302F6D6F64756C65732F7465B6
:104FD800652F74662D6D2F747275737465642D66F4
:104FE80069726D776172652D6D2F706C6174666F73
:104FF800726D2F6578742F7461726765742F6E6F88
:10500800726469635F6E72662F636F6D6D6F6E2F6A
:10501800636F72652F6E7266785F676C75652E6355
:10502800000000006E7266785F637269746963617C
:105038006C5F73656374696F6E5F6578697400008F
:105048002128705F7265672D3E464C4153484E5388
:10505800435B666C6173685F6E73635F69645D2E42
:10506800524547494F4E20262028307831554C204C
:105078003C3C202838554C2929290000433A2F6EFA
:1050880063732F76322E352E302F6D6F64756C65F5
:10509800732F68616C2F6E6F726469632F6E72660E
:1050A800782F68616C2F6E72665F7370752E68005A
:1050B8002128705F7265672D3E464C4153484E5318
:1050C800435B666C6173685F6E73635F69645D2ED2
:1050D80053495A4520262028307831554C203C3CED
:1050E800202838554C292929000000002128705F04
:1050F8007265672D3E464C415348524547494F4ECD
:105108005B726567696F6E5F69645D2E5045524DCD
:1051180020262028307831554C203C3C2028385512
:105128004C292929000000002128705F7265672D2D
:105138003E52414D524547494F4E5B726567696F14
:105148006E5F69645D2E5045524D202620283078C8
:1051580031554C203C3C202838554C292929000041
:10516800705F7265672D3E50455249504849445B0F
:105178007065726970686572616C5F69645D2E50F4
:1051880045524D20262028307831554C203C3C2073
:10519800283331554C2929002128705F7265672D05
:1051A8003E50455249504849445B70657269706881
:1051B8006572616C5F69645D2E5045524D202620F2
:1051C80028307831554C203C3C202838554C29292A
:1051D8002900000073697A65203C3D206E73635F87
:1051E80073697A6500000000433A2F6E63732F7667
:1051F800322E352E302F6D6F64756C65732F746584
:10520800652F74662D6D2F747275737465642D66C1
:1052180069726D776172652D6D2F706C6174666F40
:10522800726D2F6578742F7461726765742F6E6F55
:10523800726469635F6E72662F636F6D6D6F6E2F38
:10524800636F72652F6E61746976655F64726976E3
:105258006572732F7370752E6300000028287374AD
:105268006172745F61646472202B206E73635F7374
:10527800697A652920252028307838303030292966
:10528800203D3D2030000000286E73635F73697A0B
:1052980065202620286E73635F73697A65202D2048
:1052A800312929203D3D203000000000286E73631D
:1052B8005F73697A65203E3D2033322920262620F7
:1052C800286E73635F73697A65203C3D20343039FA
:1052D800362900002828284E52465F5350555F54FF
:1052E8007970652A292030783530303033303030C5
:1052F800554C292D3E50455249504849445B7065EC
:10530800726970685F69645D2E5045524D20262091
:1053180028307833554C203C3C202830554C2929DE
:105328002920213D202828307830554C29203C3C24
:10533800202830554C2929002828284E52465F53EA
:1053480050555F547970652A2920307835303030CF
:1053580033303030554C292D3E504552495048493C
:10536800445B7065726970685F69645D2E50455270
:105378004D20262028307833554C203C3C202830BE
:10538800554C29292920213D202828307831554C91
:1053980029203C3C202830554C2929006E72665F34
:1053A8007370755F666C617368726567696F6E5F4D
:1053B800736574006E72665F7370755F72616D728B
:1053C8006567696F6E5F7365740000007370755F61
:1053D800726567696F6E735F666C6173685F636F30
:1053E8006E6669675F6E6F6E5F7365637572655F22
:1053F80063616C6C61626C65000000006E72665FD0
:105408007370755F666C6173686E73635F736574E0
:10541800000000007370755F70657269706865726E
:10542800616C5F636F6E6669675F736563757265EC
:10543800000000006E72665F7370755F7065726958
:1054480070686572616C5F73657400007370755F76
:105458007065726970686572616C5F636F6E6669AA
:10546800675F6E6F6E5F736563757265000000003D
:105478000002FF002C0000003001FF0008000000BF
:105488004001FF000C0000002128705F7265672D45
:105498003E445050495B647070695F69645D2E4C8E
:1054A8004F434B20262028307831554C203C3C2057
:1054B8002830554C29292900433A2F6E63732F76DB
:1054C800322E352E302F6D6F64756C65732F6861C1
:1054D8006C2F6E6F726469632F6E7266782F6861C5
:1054E8006C2F6E72665F7370752E68002128705F6E
:1054F8007265672D3E4750494F504F52545B677055
:10550800696F5F706F72745D2E4C4F434B2026207D
:1055180028307831554C203C3C202830554C2929DE
:10552800290000002128705F7265672D3E45585498
:10553800444F4D41494E5B646F6D61696E5F6964AC
:105548005D2E5045524D20262028307831554C206C
:105558003C3C202838554C2929290000000001002E
:1055680000000100FFFF0F0000FC00000000010028
:105578006E72665F7370755F647070695F636F6E7B
:105588006669675F736574006E72665F7370755FD6
:105598006770696F5F636F6E6669675F73657400D4
:1055A8006E72665F7370755F657874646F6D61693C
:1055B8006E5F736574000000FFFFFFFF0F000000BF
:1055E000009A234B9A4208D110B500F077F900F0E9
:1055F000C5F806BC96460C4674470FDFFEE700BFB1
:105600001846009A1A4B9A4208D110B500F072F968
:1056100000F0B4F806BC96460C4674470FDFFEE770
:1056200000BF18460CB4029A114B9A4209D10CBC27
:1056300010B500F071F900F0A1F806BC96460C46D2
:1056400074470FDFFEE700BF1846009A084B9A42E6
:1056500002D10849086874470FDFFEE700BF18460B
:10566000009A034B9A4200D174470FDFFEE700BF58
:10567000A5EDF5FE202E00200348044B834202D006
:10568000034B03B1184770472C2F00202C2F00200C
:10569000000000000548064B1B1AD90F01EBA301BF
:1056A000491002D0034B03B1184770472C2F00203C
:1056B0002C2F00200000000010B5064C237843B9C1
:1056C000FFF7DAFF044B13B10448AFF30080012366
:1056D000237010BD3C30002000000000489E0000F8
:1056E00008B5044B1BB104490448AFF30080BDE882
:1056F0000840CFE70000000040300020489E000036
:10570000A3F5803A704700BF174B002B08BF134B1F
:105710009D46FFF7F5FF00218B460F461348144ABC
:10572000121A00F092F80E4B002B00D098470D4B48
:10573000002B00D098470020002104000D000D48E8
:10574000002802D00C48AFF3008003F0D7F9200006
:105750002900FCF763FC03F0ABF900BF0000080070
:105760000000000000000000F80B0020402F002087
:10577000C84900200000000000000000002383F35F
:105780000088704700BF80B500AFFCF7F5FB00BF95
:1057900080BDFFF7F8FFFEE700BF80B500AFFCF764
:1057A000EBFB00BF80BDFFF7F8FFFEE700BF80B551
:1057B00000AFFCF7E1FB00BF80BDFFF7F8FFFEE79D
:1057C00000BF80B500AFFCF7D7FB00BF80BDFFF77F
:1057D000F8FFFEE700BF80B500AFFCF7CDFB00BFD0
:1057E00080BDFFF7F8FFFEE700BF80B400AF00BF49
:1057F000BD4680BC704780B400AF00BFBD4680BCD2
:10580000704780B400AF00BFBD4680BC704780B415
:1058100000AF00BFBD4680BC704780B400AF00BF82
:10582000BD4680BC704780B400AF00BFBD4680BCA1
:10583000704780B400AF00BFBD4680BC704780B4E5
:1058400000AF00BFBD4680BC704780B487B000AFDA
:10585000F860B9607A60FB683B61BB68DBB21A46EE
:1058600013461B0213441B041A46BB68DBB21B021F
:105870001343BA68D2B213437B6108E03B695A1CF8
:105880003A61BA68D2B21A707B68013B7B607B6870
:10589000002B0DD03B6903F00303002BEED107E092
:1058A0003B691A1D3A617A691A607B68043B7B6028
:1058B0007B68032BF4D805E03B695A1C3A61BA684F
:1058C000D2B21A707B685A1E7A60002BF4D1FB6842
:1058D00018461C37BD4680BC7047000080B500AF3D
:1058E000034B1B685B689B6898470346184680BD5E
:1058F000001C002080B582B000AF7860054B1B68AB
:105900005B685B6878689847034618460837BD4669
:1059100080BD00BF001C002090B585B000AFF860CE
:10592000B9607A603B60074B1B685B681C683B682A
:105930007A68B968F868A047034618461437BD4628
:1059400090BD00BF001C002080B582B000AF786021
:105950003960064B1B685B68DB6839687868984774
:10596000034618460837BD4680BD00BF001C002016
:1059700080B582B000AF78603960064B1B685B6809
:105980001B69396878689847034618460837BD464A
:1059900080BD00BF001C002090B585B000AFF8604E
:1059A000B9607A603B60074B1B685B685C693B6869
:1059B0007A68B968F868A047034618461437BD46A8
:1059C00090BD00BF001C002090B585B000AFF8600E
:1059D000B9607A603B60064B1B685B68DC693B68BA
:1059E0007A68B968F868A04700BF1437BD4690BD13
:1059F000001C002080B582B000AF78603960054B94
:105A00001B685B681B6A39687868984700BF08376D
:105A1000BD4680BD001C002080B500AF034B1B6855
:105A20005B685B6A984700BF80BD00BF001C002018
:105A300080B483B000AF7860002318460C37BD46B1
:105A400080BC70470F4B02689A4206D1C269A3F12D
:105A50001023A3F1EF139A4201D00120704783680D
:105A6000012BFAD8C36813B102699342F5D0436998
:105A70002BB18069C01AB0FA80F04009704718460F
:105A8000704700BF55AA00FFF8B5164B996829B1B9
:105A90000846FFF7D7FF08B9CB680BB10120F8BD66
:105AA0000B69002BFBD0104D104E1A68AA42F5D19D
:105AB000DA69B242F2D19A68012AEFD8DC68002C88
:105AC000ECD01A699442E9D05F691FB1D3F818C0CD
:105AD0006745E3D08C42E1D11946002ADFD0134656
:105AE000E3E700BF4839002055AA00FF669911EE90
:105AF000002865D070B5374D2B68002B54D0AA68AC
